:020000040800F2
:1000000000000220E1320008D1050008D3050008F5
:10001000D5050008D7050008D90500080000000034
:100020000000000000000000000000008D3100080A
:10003000DB05000800000000E13100083D32000847
:100040003133000831330008313300083133000800
:1000500031330008313300083133000831330008F0
:1000600031330008313300083133000831330008E0
:1000700031330008313300083133000831330008D0
:1000800031330008313300083133000831330008C0
:1000900031330008313300083133000831330008B0
:1000A00031330008313300083133000831330008A0
:1000B0003133000831330008313300083133000890
:1000C0003133000831330008313300083133000880
:1000D0003133000831330008DD05000831330008F2
:1000E0003133000831330008313300083133000860
:1000F0003133000831330008313300083133000850
:10010000313300083133000831330008313300083F
:100110003133000831330008ED05000831330008A1
:10012000313300083133000831330008313300081F
:1001300031330008000000000000000031330008E7
:1001400031330008313300083133000831330008FF
:1001500031330008313300083133000831330008EF
:1001600031330008313300083133000831330008DF
:10017000313300083133000831330008000000003B
:100180000000000031330008000000000000000003
:100190003133000800000000000000003133000887
:1001A00000000000000000000000000031330008E3
:1001B000313300083133000831330008313300088F
:0401C00031330008CF
:1001D000034613F8012B002AFBD1181A0138704787
:1001E00001F0FF01102A2BDB10F0070F08D010F8E8
:1001F000013B013A8B422DD010F0070F42B3F6D1EC
:10020000F0B441EA012141EA014122F007047FF004
:1002100000070023F0E80256083C85EA010586EA5B
:10022000010685FA47F5A3FA87F586FA47F6A5FA97
:1002300087F68EB9EED1F0BC01F0FF0102F00702A3
:1002400032B110F8013B013A83EA010313B1F8D14E
:100250000020704701387047002D06BF354603382F
:10026000073815F0010F07D1013015F4807F02BF68
:10027000013015F4C03F0130F0BC0138704700BFB9
:1002800053B94AB9002908BF00281CBF4FF0FF31FD
:100290004FF0FF3000F00CB8ADF1080C6DE904CE62
:1002A00003F0FAFCDDF804E0DDE9022304B0704756
:1002B000704700BF0348044B834202D0034B03B195
:1002C000184770475C0000205C0000200000000020
:1002D0000548064B1B1AD90F01EBA301491002D0A8
:1002E000034B03B1184770475C0000205C000020FE
:1002F0000000000010B5064C237843B9FFF7DAFF81
:10030000044B13B10448AFF300800123237010BDE8
:100310005C00002000000000B83F000808B5054B55
:100320001BB105490548AFF30080BDE80840FFF761
:10033000CFBF00BF0000000060000020B83F0008F1
:1003400010B50446FFF744FF4FF0FF3382B2214659
:10035000014800F0A9FC10BD7C00002030B591B030
:1003600019244FF47A7002F0E9F9013403AD224602
:100370000749284602F0DEFF2846FFF7E1FF00218B
:100380000091032322460348006802F095FBE8E74A
:10039000D03F00087800002000B591B000230F93F3
:1003A0004FF0FF3200920FAB0021084602F010FB25
:1003B00002AC0F9A0349204602F0BCFF2046FFF72B
:1003C000BFFFEDE70840000870B594B007AE3422D7
:1003D0000021304602F0D0FF02AD002402940394C5
:1003E0000494059406940094164B1A6C42F08052C3
:1003F0001A641B6C03F080530093009B0194124A13
:10040000136823F4404343F480431360136803F4F8
:1004100040430193019B0223079301230A93102376
:100420000B930D94304601F003F80F2302930394CD
:100430000494059406942146284600F071FE14B0F9
:1004400070BD00BF003802400070004000B583B0AE
:1004500001F0D8FBFFF7B8FF00F02CF800F060F8CF
:100460000D48FFF76DFF0D4B01930223009300230E
:100470004FF480720A490B4801F08CFF002301936E
:10048000012200924FF480720749084801F082FF70
:1004900001F0C4FFFEE700BF4440000878000020E0
:1004A00074400008990300087C4000085D030008C0
:1004B00072B6FEE710B588B003A9002403944C601F
:1004C0008C60CC600C610194134B1A6B42F00402F7
:1004D0001A631A6B02F004020192019A02941A6BD9
:1004E00042F001021A631B6B03F001030293029BAB
:1004F0004FF4005303934FF404130493074801F09F
:10050000BBF922460621282001F068FB282001F0D3
:1005100075FB08B010BD00BF003802400008024063
:1005200008B50A480A4B03604FF4E13343600023E7
:100530008360C36003610C2242618361C36100F088
:1005400083FB00B908BDFFF7B3FFFBE77C00002089
:100550000044004000B589B0002303930493059341
:10056000069307930268184B9A4201D009B000BD68
:100570000021019103F5FA331A6C42F400321A6437
:100580001A6C02F400320192019A02911A6B42F045
:1005900001021A631B6B03F001030293029B0C23FD
:1005A000039302230493032306930723079303A9CA
:1005B000064801F061F900221146262001F00EFBE9
:1005C000262001F01BFBD1E7004400400000024060
:1005D000FEE7FEE7FEE7FEE7FEE7704708B50248E4
:1005E00000F050FC08BD00BF7C00002008B50248A8
:1005F00000F0BDF808BD00BFC400002082B000219B
:1006000000910B4B5A6C42F480425A645A6C02F4CB
:1006100080420092009A01911A6C42F080521A6452
:100620001B6C03F080530193019B02B0704700BF25
:100630000038024030B589B0044600230193224BB4
:100640001A6C42F010021A641B6C03F01003019341
:10065000019B02A903A800F039FE069BCBB900F06C
:1006600015FE0346194AA2FB03239B0C013B1848C5
:10067000184A026040F2E732C2604360002303611F
:100680008360836100F08AF9054630B1284609B0DD
:1006900030BD00F0FBFD4300E4E70D4800F020F81A
:1006A00005460028F2D1362001F0A8FA0F2C02D915
:1006B00001231D46EAE700222146362001F08EFA8A
:1006C000054B1C60E2E700BF0038024083DE1B439D
:1006D000C40000200010004000000020704700000F
:1006E00090F83D30012B37D1022380F83D3002686D
:1006F000D36843F00103D3600368194A934220D0C2
:10070000B3F1804F1DD0A2F57C42934219D002F57F
:100710008062934215D002F58062934211D002F5B7
:10072000784293420DD002F57052934209D0A2F55F
:100730009432934205D01A6842F001021A600020F8
:1007400070479A6802F00702062A07D01A6842F03A
:1007500001021A6000207047012070470020704796
:10076000000001407047704770477047704770B590
:1007700004460368DE681D6915F0020F10D016F0FC
:10078000020F0DD06FF002021A6101230377036894
:100790009B6913F0030F5ED0FFF7E6FF002323777A
:1007A00015F0040F12D016F0040F0FD023686FF06D
:1007B00004021A610223237723689B6913F4407FA4
:1007C0004FD02046FFF7D0FF0023237715F0080F06
:1007D00012D016F0080F0FD023686FF008021A61CC
:1007E000042323772368DB6913F0030F40D02046EE
:1007F000FFF7BAFF0023237715F0100F12D016F081
:10080000100F0FD023686FF010021A6108232377AE
:100810002368DB6913F4407F31D02046FFF7A4FF43
:100820000023237715F0010F02D016F0010F2DD110
:1008300015F0800F02D016F0800F2FD115F0400F69
:1008400002D016F0400F31D115F0200F02D016F073
:10085000200F33D170BDFFF786FF2046FFF785FFDD
:100860009CE72046FFF77FFF2046FFF77EFFABE7C0
:100870002046FFF778FF2046FFF777FFBAE72046CC
:10088000FFF771FF2046FFF770FFC9E723686FF09D
:1008900001021A612046FFF765FFC9E723686FF080
:1008A00080021A61204600F0A6F8C7E723686FF0BF
:1008B00040021A612046FFF759FFC5E723686FF031
:1008C00020021A61204600F095F8C3E70368324A17
:1008D000904212D0B0F1804F0FD0A2F57C429042EE
:1008E0000BD002F58062904207D002F58062904200
:1008F00003D002F57842904203D123F070034A6896
:100900001343254A90422AD0B0F1804F27D0A2F558
:100910007C42904223D002F5806290421FD002F5C3
:10092000806290421BD002F57842904217D002F5C7
:100930007052904213D002F5806290420FD002F5BF
:10094000806290420BD0A2F59832904207D002F517
:100950008062904203D002F58062904203D123F47A
:100960004073CA68134323F080034A6913438A68BB
:10097000C2620A688262084A904203D002F580622D
:10098000904201D10A690263026842F004020260E7
:1009900001224261036070470000014040B310B57E
:1009A000044690F83D30F3B1022384F83D302146EF
:1009B00051F8040BFFF78AFF012384F8463084F8CE
:1009C0003E3084F83F3084F8403084F8413084F879
:1009D000423084F8433084F8443084F8453084F859
:1009E0003D30002010BD80F83C30FFF777FEDBE79C
:1009F0000120704770477047026802F10C0353E80A
:100A0000003F23F490730C3242E800310029F3D107
:100A1000026802F1140353E8003F23F0010314328B
:100A200042E800310029F3D1036B012B05D02023CC
:100A300080F84230002303637047026802F10C0320
:100A400053E8003F23F010030C3242E80031002944
:100A5000F3D1ECE790F84130212B01D00220704710
:100A60008368B3F5805F17D0036A5A1C02621A7854
:100A700003685A60C38C9BB2013B9BB2C3844BB9E1
:100A80000268D36823F08003D3600268D36843F020
:100A90004003D360002070470369002BE4D1036A50
:100AA0001B880268C3F308035360036A02330362BE
:100AB000E0E7000010B504460268136923F44053D0
:100AC000C1680B431361836802691A4343691A437F
:100AD000C3691A430168CB6823F4164323F00C035F
:100AE0001343CB600268536923F4407381690B435D
:100AF00053610368314A934206D002F58062934203
:100B000002D000F0C3FB01E000F0D0FBE369B3F5D5
:100B1000004F29D00021031849411B1841F1000161
:100B2000C90041EA5371DB00181863684FEA830279
:100B30004FEA937341F10001FFF7A2FB204AA2FBA9
:100B400000314909642303FB11031B013233A2FB6B
:100B500003235B0903F0F00202EB011203F00F0321
:100B6000216813448B6010BD0023021843EB03017E
:100B7000121841F10001C90041EA5271D200101867
:100B800041F10001626892185B41FFF779FB0C4A62
:100B9000A2FB00314909642303FB1103DB0032335C
:100BA000A2FB03235B095A0002F4F87202EB011264
:100BB00003F00703216813448B60D4E70010014061
:100BC0001F85EB512DE9F04182B004460D461646D3
:100BD0009846089F23681B6835EA03030CBF4FF053
:100BE000010C4FF0000CB44526D1B7F1FF3FF1D016
:100BF00001F022F84346C01AB84221D817B323683F
:100C0000DA6812F0040FE5D0802DE3D0402DE1D05A
:100C10001A6812F0080FDDD0002501951A680192BC
:100C20005B680193019B2046FFF7E6FE082363649F
:100C300084F84050012000E0002002B0BDE8F081BF
:100C40000320FAE70320F8E760B310B5044690F8F4
:100C5000413013B3242384F841302268D36823F44D
:100C60000053D3602046FFF725FF2268136923F461
:100C7000904313612268536923F02A035361226869
:100C8000D36843F40053D36000206064202384F8C9
:100C9000413084F84230606310BD80F84030FFF787
:100CA00059FCD7E7012070472DE9F04184B01E467A
:100CB00090F84130202B57D104460D46002957D0DB
:100CC00003920AB9012050E000234364212380F8F5
:100CD000413000F0B1FF0746039BA384E384A3687F
:100CE000B3F5805F02D00023984616E023693BB33A
:100CF0000023984611E0202384F84130032034E09B
:100D0000424632F8023B90462268C3F30803536020
:100D1000E28C92B2013A92B2E284E38C9BB293B13C
:100D200000963B46002280212046FFF74BFF00281B
:100D3000E1D1002DE4D015F8012B23685A60E7E7D4
:100D4000A8461D46E9E700963B4600224021204682
:100D5000FFF738FF18B9202384F8413005E020233D
:100D600084F84130032000E0022004B0BDE8F081A7
:100D70000120FAE7704708B50168CA6822F040020E
:100D8000CA60202280F84120FFF7F4FF002008BD50
:100D90007047704708B5806B0023C385FFF7F9FFE4
:100DA00008BD704790F84230222B67D18368B3F5B5
:100DB000805F4DD0826AB3F5805F04D0002B54D1A0
:100DC0000369002B51D103685B681370836A013398
:100DD0008362C38D9BB2013B9BB2C385002B4FD175
:100DE00000B583B00268D36823F02003D3600268A3
:100DF000D36823F48073D3600268536923F001033E
:100E00005361202380F8423000234363036B012B9E
:100E100031D100230363026802F10C0353E8003F61
:100E200023F010030C3242E800310029F3D10368AB
:100E30001A6812F0100F05D001911A6801925B68D0
:100E40000193019B818DFFF7ACFF002003B000BD33
:100E50000269002AAED1826A03685B68C3F30803A3
:100E60001380836A02338362B3E703685B6803F02D
:100E70007F031370AAE7FFF78BFFE6E702207047B6
:100E80000020704710B582B0044602681368D0682D
:100E9000516913F00F0F09D113F0200F0CD010F08F
:100EA000200F09D02046FFF77DFF16E011F0010169
:100EB00015D110F4907F12D1216B012979D013F054
:100EC000800F03D010F0800F40F01F8113F0400F0F
:100ED00003D010F0400F40F01C8102B010BD13F0A1
:100EE000010F06D010F4807F03D0626C42F0010243
:100EF000626413F0040F04D019B1626C42F0020274
:100F0000626413F0020F04D019B1626C42F0040263
:100F1000626413F0080F07D010F0200F00D119B150
:100F2000626C42F008026264626C002AD5D013F051
:100F3000200F02D010F0200F29D123685B6903F045
:100F40004003626C12F0080F00D163B32046FFF734
:100F500053FD23685B6913F0400F20D0226802F133
:100F6000140353E8003F23F04003143242E80031F9
:100F70000029F3D1E36B73B1684A1A65E06B00F0A6
:100F8000C3FD0028A9D0E06B036D9847A5E7204674
:100F9000FFF708FFD1E72046FFF7FBFE9DE720465D
:100FA000FFF7F7FE99E72046FFF7F3FE002363649F
:100FB00093E713F0100F82D010F0100F3FF47FAFC3
:100FC000002301931368019353680193019B5369B4
:100FD00013F0400F5ED0E26B13685B689BB2002B8E
:100FE00049D0A18D994246D9E385D369B3F5807F75
:100FF00036D0226802F10C0353E8003F23F48073DB
:101000000C3242E800310029F3D1226802F11403C6
:1010100053E8003F23F00103143242E80031002975
:10102000F3D1226802F1140353E8003F23F0400398
:10103000143242E800310029F3D1202384F84230F1
:101040002163226802F10C0353E8003F23F01003F0
:101050000C3242E800310029F3D1E06B00F00AFDC8
:1010600002236363A18DE38D9BB2C91A89B2204626
:10107000FFF797FE31E7A18D99427FF42EAFD36938
:10108000B3F5807F7FF429AF022363632046FFF727
:1010900088FE22E7A18DE38D9BB2C91A89B2E38D48
:1010A0009BB2002B3FF419AF00293FF416AF226822
:1010B00002F10C0353E8003F23F490730C3242E832
:1010C00000300028F3D1226802F1140353E8003FF6
:1010D00023F00103143242E800300028F3D120232A
:1010E00084F842302063226802F10C0353E8003F89
:1010F00023F010030C3242E800300028F3D1022321
:1011000063632046FFF74DFEE7E62046FFF7A2FCAB
:10111000E3E62046FFF72FFEDFE600BF950D00084F
:10112000002800F09B8070B50D4604464F4B1B68AD
:1011300003F00F038B4208D2CBB24C4A13701368F2
:1011400003F00F038B4240F08B80236813F0020FF3
:1011500017D013F0040F04D0454A936843F4E053CA
:101160009360236813F0080F04D0414A936843F456
:10117000604393603E4A936823F0F003A1680B43F9
:101180009360236813F0010F32D06368012B21D0E4
:101190009A1E012A25D9364A126812F0020F61D030
:1011A00033498A6822F0030213438B6000F044FD48
:1011B00006462F4B9B6803F00C036268B3EB820F6B
:1011C00016D000F039FD801B41F288339842F0D9E7
:1011D000032042E0264A126812F4003FE0D10120C9
:1011E0003BE0234A126812F0007FD9D1012034E09D
:1011F0001E4B1B6803F00F03AB4207D9EAB21B4B2F
:101200001A701B6803F00F03AB422DD1236813F053
:10121000040F06D0164A936823F4E053E1680B43A9
:101220009360236813F0080F07D0114A936823F4E2
:101230006043216943EAC103936000F065F80C4BF9
:101240009B68C3F303130B4AD35CD8400A4B186066
:101250000A4B1868FFF7EEF9002070BD01207047B7
:101260000120FAE70120F8E70120F6E7003C024000
:10127000003802409C4000080400002000000020CC
:10128000014B1868704700BF0400002008B5FFF745
:10129000F7FF044B9B68C3F38223034AD35CD84017
:1012A00008BD00BF003802409440000808B5FFF7B1
:1012B000E7FF044B9B68C3F34233034AD35CD84037
:1012C00008BD00BF00380240944000080F230360AF
:1012D0000B4B9A6802F0030242609A6802F0F00237
:1012E00082609A6802F4E052C2609B68DB0803F4F3
:1012F000E0530361034B1B6803F00F030B6070475F
:1013000000380240003C024008B5464B9B6803F0A1
:101310000C03082B05D00C2B43D0042B7FD1424863
:1013200019E0404B5A6802F03F025B6813F4800FEB
:1013300012D03C4B5968C1F388113B480023A1FBF4
:101340000001FEF79DFF374B5B68C3F30143013398
:101350005B00B0FBF3F008BD324B5868C0F3881057
:101360004FEA401CBCEB000C6EEB0E0E4FEA8E13E6
:1013700043EA9C634FEA8C11B1EB0C0163EB0E0363
:10138000DB0043EA5173C90011EB000C43F1000389
:10139000990200234FEA8C2041EA9C51FEF770FF2E
:1013A000D1E7204B5A6802F03F025B6813F4800FCC
:1013B00010D01C4B5968C1F388111B480023A1FBB6
:1013C0000001FEF75DFF174B5B68C3F30273B0FBD0
:1013D000F3F0C0E7134B5868C0F388104FEA401C85
:1013E000BCEB000C6EEB0E0E4FEA8E1343EA9C63CF
:1013F0004FEA8C11B1EB0C0163EB0E03DB0043EA07
:101400005173C90011EB000C43F100039902002352
:101410004FEA8C2041EA9C51FEF732FFD3E70348A4
:1014200099E700BF0038024040787D010024F400B5
:10143000002800F0038270B582B00446036813F000
:10144000010F41D09A4B9B6803F00C03042B32D060
:10145000974B9B6803F00C03082B27D0944B9B6899
:1014600003F00C030C2B59D06368B3F5803F5BD0BD
:10147000B3F5A02F5ED08E4B1A6822F480321A602A
:101480001A6822F480221A606368002B5CD000F096
:10149000D3FB0546864B1B6813F4003F14D100F0C4
:1014A000CBFB401B6428F5D90320CEE1804B5B6861
:1014B00013F4800FD2D07E4B1B6813F4003F03D08F
:1014C0006368002B00F0BC81236813F0020F60D02A
:1014D000774B9B6813F00C0F4AD0754B9B6803F059
:1014E0000C03082B3FD0724B9B6803F00C030C2BB2
:1014F00069D0E368002B75D06E4B01221A6000F0B2
:101500009BFB05466A4B1B6813F0020F61D100F08C
:1015100093FB401B0228F5D9032096E1644B5B68DE
:1015200013F4800FA0D0C6E7614A136843F48033F8
:101530001360A9E75E4B1A6842F480221A601A68A9
:1015400042F480321A609FE700F076FB0546584B64
:101550001B6813F4003FB7D000F06EFB401B6428FB
:10156000F5D9032071E1524B5B6813F4800FBAD1B7
:101570004F4B1B6813F0020F03D0E368012B40F0C0
:1015800061814B4A136823F0F803216943EAC103E0
:101590001360236813F0080F49D06369002B33D020
:1015A000444B0122C3F8802E00F046FB0546404B19
:1015B0005B6F13F0020F3AD100F03EFB401B022894
:1015C000F5D9032041E13A4B5B6813F4800F90D1C9
:1015D000CEE7374A136823F0F803216943EAC103D1
:1015E0001360D6E7334B00221A6000F025FB054656
:1015F0002F4B1B6813F0020FCBD000F01DFB401BDC
:101600000228F5D9032020E12A4B0022C3F8802EBE
:1016100000F012FB0546264B5B6F13F0020F06D05D
:1016200000F00AFB401B0228F5D903200DE12368D6
:1016300013F0040F78D01E4B1B6C13F0805F34D175
:10164000002301931A4B1A6C42F080521A641B6CEF
:1016500003F080530193019B01231E46164B1B6828
:1016600013F4807F2AD0A368012B3BD0052B3FD0F9
:101670000F4B1A6F22F001021A671A6F22F0040250
:101680001A67A368002B3DD000F0D6FA0546084B38
:101690001B6F13F0020F46D100F0CEFA401B41F24F
:1016A00088339842F3D90320CFE000231E46D5E7C4
:1016B0000038024000004742007000406B4A136847
:1016C00043F48073136000F0B7FA0546674B1B685C
:1016D00013F4807FC7D100F0AFFA401B0228F5D980
:1016E0000320B2E0624A136F43F001031367C8E7B7
:1016F0005F4B1A6F42F004021A671A6F42F0010240
:101700001A67BEE700F098FA0546594B1B6F13F0B5
:10171000020F08D000F090FA401B41F28833984243
:10172000F3D9032091E0EEB9A369002B00F08C807F
:101730004F4A926802F00C02082A54D0022B17D0AC
:101740004C4B00221A6600F077FA0446484B1B689F
:1017500013F0007F45D000F06FFA001B0228F5D986
:10176000032072E0424A136C23F080531364DBE7DA
:10177000404B00221A6600F05FFA05463C4B1B689E
:1017800013F0007F06D000F057FA401B0228F5D96D
:1017900003205AE0E369226A1343626A43EA821330
:1017A000A26A5208013A43EA0243E26A43EA026348
:1017B000226B43EA02732E4A53602E4B01221A66B3
:1017C00000F03AFA04462A4B1B6813F0007F06D15A
:1017D00000F032FA001B0228F5D9032035E0002082
:1017E00033E0002031E0012B31D0214B5B6803F462
:1017F0008001E26991422CD103F03F02216A8A42C2
:1018000029D1616A47F6C0721A40B2EB811F24D118
:1018100003F44031A26A5208013AB1EB024F1ED1E3
:1018200003F07062E16AB2EB016F1AD103F0E0439A
:10183000226BB3EB027F16D1002006E00120704737
:10184000012002E0012000E0184602B070BD012036
:10185000FBE70120F9E70120F7E70120F5E7012088
:10186000F3E70120F1E70120EFE700BF007000403F
:10187000003802400000474270B582B08E46002317
:1018800069E085684FEA430C032101FA0CF125EA6F
:101890000105DEF80C1001FA0CF129438160416862
:1018A00021EA0201DEF80420C2F300129A400A4342
:1018B000426065E0D908083150F8212003F007059F
:1018C000AD004FF00F0C0CFA05FC22EA0C0CDEF810
:1018D0001020AA4042EA0C0240F8212067E00622CC
:1018E00000E0002202FA0CF22A4302315D4D45F875
:1018F00021205D4A9168E24321EA0405DEF8046094
:1019000016F4801F01D044EA010557498D60C9686B
:1019100002EA0105DEF8046016F4001F01D044EA73
:1019200001055149CD60496802EA0105DEF804600D
:1019300016F4003F01D044EA01054B494D600968A7
:101940000A40DEF8045015F4803F01D044EA010259
:1019500045490A6001330F2B00F2818001229A4031
:10196000DEF8001001EA020432EA0101F2D1DEF8E9
:10197000041001F0030C0CF1FF3CBCF1010F80D905
:10198000DEF8042002F00302032A0AD0C1685D00D9
:101990000322AA4021EA0201DEF80820AA400A43F5
:1019A000C260DEF8042002F00302022A82D001683D
:1019B0004FEA430C032202FA0CF221EA0201DEF89C
:1019C000042002F0030202FA0CF20A430260DEF87D
:1019D000042012F4403FBDD000220192234A516CF2
:1019E00041F480415164526C02F480420192019AA8
:1019F00099088D1C1B4A52F8255003F0030C4FEA3E
:101A00008C0C0F2202FA0CF225EA0205184A9042C9
:101A10003FF467AF02F58062904216D002F5806213
:101A2000904214D002F58062904212D002F580629A
:101A3000904210D002F5806290420ED002F5806292
:101A400090423FF44CAF07224CE701224AE70222C2
:101A500048E7032246E7042244E7052242E702B0B2
:101A600070BD00BF00380140003C0140003802401A
:101A70000000024070B50446836D1E4600F0DCF89D
:101A800094F83530022B06D080236365002384F858
:101A90003430012070BD05462268136823F0160318
:101AA00013602268536923F080035361236CE3B110
:101AB0002268136823F0080313602268136823F078
:101AC0000103136023681B6813F0010F11D000F0AD
:101AD000B3F8431B052BF5D920236365032084F855
:101AE0003500002384F83430D4E7A36C002BDFD119
:101AF000E3E7E26D3F239340B360012384F8353080
:101B0000002084F83400C5E790F83530022B03D06C
:101B10008023436501207047052380F83530026833
:101B2000136823F00103136000207047002807DBCF
:101B300000F01F02400901239340024A42F820307E
:101B4000704700BF00E100E0002808DB0901C9B2CE
:101B500000F1604000F5614080F80013704700F02C
:101B60000F000901C9B2014B1954704714ED00E090
:101B700000B500F00700A0F1030CBCF1040F07D87A
:101B8000C0F1070E0430062806D84FF0000C03E021
:101B90004FF0040E4FF0000C4FF0FF3303FA0EF03D
:101BA00021EA000101FA0CF103FA0CF322EA030224
:101BB00041EA020000BD0000074AD36823F4E06355
:101BC0001B041B0C000200F4E060034343F0BF63FE
:101BD00043F40033D360704700ED00E010B50446D5
:101BE000054BD868C0F30220FFF7C2FF014620462C
:101BF000FFF7AAFF10BD00BF00ED00E008B5FFF73A
:101C000095FF08BD08B50B4B1A6842F400721A60C4
:101C10001A6842F480621A601A6842F480721A608C
:101C20000320FFF7C9FF0F20FEF704FDFEF7E6FCD7
:101C3000002008BD003C0240014B1868704700BFFF
:101C40000C010020034AD2F8883043F47003C2F834
:101C50008830704700ED00E008B503460D4A0E4994
:101C60000E48006840B10D4800680344521A934280
:101C700008D80A4A136008BD0848DFF824C0C0F835
:101C800000C0F0E701F080FB0C2303604FF0FF3051
:101C9000F1E700BF00000220000400001001002056
:101CA000E03F002000F1080343604FF0FF32826004
:101CB000C360036100230360704700230361704722
:101CC00010B402460846D1F800C0BCF1FF3F11D065
:101CD00002F1080319465B681C686445FAD94B6831
:101CE000436098608160486002611368013313604B
:101CF00010BC70471169F2E70369416882688A6025
:101D0000416851605A68824205D000220261186819
:101D100001381860704782685A60F6E710B50446CB
:101D200001F044FAA36B2BB901231C4601F04EFAD3
:101D3000204610BD00231C46F8E70346026C6AB13A
:101D400010B50846D9681144D9609C68A14201D3F6
:101D50001968D960D96801F043FB10BD704738B5E8
:101D6000054601F023FA95F8454064B201E0013CD4
:101D700064B2002C0ADD6B6A43B105F1240000F067
:101D80006DFD0028F3D000F01DFEF0E7FF2385F87D
:101D9000453001F01BFA01F009FA95F8444064B2AD
:101DA00001E0013C64B2002C0ADD2B6943B105F16E
:101DB000100000F053FD0028F3D000F003FEF0E720
:101DC000FF2385F8443001F001FA38BD002846D0E1
:101DD00038B50D460446C36B002B3ED0026C002183
:101DE000A2FB032313B919B1002037E00121FAE760
:101DF00001F0DCF92368E26B216C01FB0230A0608A
:101E00000020A0636360013A02FB0133E360FF231B
:101E100084F8443084F84530B5B923691BB901F022
:101E2000D5F901201AE004F1100000F017FD002898
:101E3000F5D04FF0E0234FF08052C3F8042DBFF3EC
:101E40004F8FBFF36F8FEAE704F11000FFF72AFF0F
:101E500004F12400FFF726FFE1E7184638BD70477C
:101E600008B5034602988C4639B90060C363C0F8D0
:101E700040C00121FFF7AAFF08BD0260F6E7F0B5F8
:101E800083B0E0B10D46174604460023A1FB0012C3
:101E90009AB9C3B905FB04F010F1490F16D84830C0
:101EA00001F096F80246064650B100903B46483293
:101EB00029462046FFF7D4FF02E00123E9E7064662
:101EC000304603B0F0BD00231E46F9E700231E464E
:101ED000F6E7F0B585B004460F46019200263EE0D5
:101EE00039462046FFF729FF013DA563236923B941
:101EF00001F06CF9012005B0F0BD04F1100000F014
:101F0000ADFC0028F4D04FF0E0234FF08052C3F82E
:101F1000042DBFF34F8FBFF36F8FE9E701F056F940
:101F20002846E8E702A800F00FFD012621E0002383
:101F300084F8443029E0002384F845302BE0204623
:101F4000FFF70DFF00F05AFB09E02046FFF707FFFF
:101F500000F054FB2046FFF7E1FE00283FD101F0DE
:101F600025F9A56B002DBBD1019B002BD6D0002EEF
:101F7000D8D001F02BF900F07BFA01F017F994F8B2
:101F800044305BB2B3F1FF3FD1D094F845305BB23F
:101F9000B3F1FF3FCFD001F019F901A902A800F079
:101FA000DFFC0028D1D12046FFF7B8FE0028C6D0BC
:101FB000019904F1240000F01DFC2046FFF7CFFE3C
:101FC00000F01CFB0028CAD14FF0E0234FF08052F4
:101FD000C3F8042DBFF34F8FBFF36F8FBFE700200F
:101FE00089E770B504460D46164601F0DFF894F80F
:101FF00044305BB2B3F1FF3F0DD094F845305BB293
:10200000B3F1FF3F0BD001F0E1F8A36B5BB12046C9
:10201000FFF7A5FE70BD002384F84430EDE70023F0
:1020200084F84530EFE73246294604F1240000F0F9
:10203000EFFBECE7074B1B681B6823B9064B4FF01F
:10204000FF321A607047034B1B68DB681A68024B4B
:102050001A607047840100201C01002010B504465E
:10206000006B01F025F8204601F022F810BD2DE9A3
:10207000F04107469846069D089C236B02F180427A
:10208000013A03EB820323F007031E4691B1084691
:102090004FF0000CBCF10F0F09D810F80C2004EB26
:1020A0000C0383F8342012B10CF1010CF2E7002389
:1020B00084F84330062D00D90625E5626564201DAD
:1020C000FFF7FBFD04F11800FFF7F7FD2461C5F1F0
:1020D0000705A561646242463946304601F040F882
:1020E0002060079B03B11C60BDE8F0812DE9F0433F
:1020F00085B08146884615461F46900000F068FF6F
:102100000646F0B1542000F063FF0446A8B1542203
:10211000002101F031F926630023039302940D9B03
:1021200001930C9B00933B462A4641464846FFF7E5
:102130009EFF204605B0BDE8F083304600F0B8FFB2
:10214000F7E70446F5E7000038B5002407E004EBA4
:1021500084000F4B03EB8000FFF7A4FD0134062C35
:10216000F5D90C4D2846FFF79DFD0B4C2046FFF797
:1021700099FD0A48FFF796FD0948FFF793FD0948C6
:10218000FFF790FD084B1D60084B1C6038BD00BF79
:10219000B00100209C010020880100206C0100207B
:1021A000580100204001002084010020800100200F
:1021B00010B5044600F0FAFF2A4A13680133136091
:1021C000294B1B685BB1294B1B686BB9264B1B68FD
:1021D000DA6AE36A9A4207D8234B1C6004E0224B78
:1021E0001C601368012B39D0214A13680133136036
:1021F000E36A204A1268934201D91E4A13601E4ABC
:1022000003EB830302EB83035B68A3609868E060E1
:10221000211D41609960E36A03EB830102EB8100B9
:10222000606152F82110013103EB830342F823105F
:1022300000F0CCFF0D4B1B687BB10B4B1B68DA6ABF
:10224000E36A9A4209D24FF0E0234FF08052C3F87C
:10225000042DBFF34F8FBFF36F8F10BDFFF774FFD7
:10226000C2E700BF3C0100203C02002030010020FA
:102270002001002034010020B00100200F4B1B681A
:10228000D3B110B500F092FF0D4BDB68DC68201D68
:10229000FFF732FD0B4A1368013B1360074A1368CE
:1022A000013B136000F092FF2046FFF7D7FE034B7F
:1022B0001B68002BE6D110BD704700BF5401002001
:1022C000580100203C01002008B5FFF7D7FF074B5D
:1022D0001B68012BF9D94FF0E0234FF08052C3F86F
:1022E000042DBFF34F8FBFF36F8FEEE7B0010020D7
:1022F0002DE9F04104468846204B1D68204B1B68A1
:102300001E46204B1B681F461F4B18680430FFF702
:10231000F3FCB4F1FF3F0DD02C441B4B1B685C60F9
:10232000A5421ED9184B196804313846FFF7C8FC7E
:10233000BDE8F0814346002BEED0144A5168124BA1
:102340001868816018688C68C46018680430606020
:102350001868043088601B685A6113680133136081
:10236000E6E7094B196804313046FFF7A9FC084B32
:102370001B68A342DCD9064B1C60D9E7380100205A
:1023800084010020800100203C0200204001002048
:102390001C01002010B582B0059C0194049C00949F
:1023A000FFF7A4FE20B1FFF703FF012002B010BD2C
:1023B0004FF0FF30FAE7000010B586B0002302931B
:1023C0000393049305930E2B09D8114AD25C03F1B1
:1023D0001801694401F8102C0AB10133F3E71833EE
:1023E0006B44002403F8104C0120002C01DD06B0E2
:1023F00010BD084B03EB840301930023009380225C
:1024000002A90548FFF7C6FF0128F0D10134ECE727
:102410008440000818010020C922000808B5FFF711
:10242000CBFF012802D00E4B1B6808BD00F058FD01
:102430000128F8D14FF0500383F31188BFF36F8F59
:10244000BFF34F8F074B4FF0FF321A60064B01224C
:102450001A60064B00221A6000F01AFFE3E700BF83
:10246000AC4000081C010020300100203801002091
:10247000024A136801331360704700BF1401002043
:10248000014B1868704700BF3801002038B5504B29
:102490001B68002B40F094804E4B1C6801341C607C
:1024A000C4B14D4B1B68A34221D94FF0000C4B4BDC
:1024B0001B68DB6A03EB8303494A52F82330012B84
:1024C00001D94FF0010C474B1B68002B7ED04FF019
:1024D000010C7BE0444A1168444B18681060196095
:1024E000434A136801331360FFF7A4FDD9E74FF0A7
:1024F000000C3AE0384B4FF0FF321A60D7E7364B0A
:102500001A60D4E7D968516045E0002199621168EA
:1025100001391160DA6A374909688A4201D93549B7
:102520000A602F4902EB820201EB820252689A6034
:10253000D2F808E0C3F80CE0CEF804009060DA6A44
:1025400002EB820001EB800EC3F814E051F820008A
:10255000013002EB820241F82200DA6A1F4B1B684D
:10256000DB6A9A4201D94FF0010C1F4B1B681B68B4
:10257000002BBFD01C4B1B68DB68DB685A68944299
:10258000BDD35A699868D968816098684860516875
:10259000181D8142B6D000215961116801391160BE
:1025A0009A6A002AB6D0196ADD69A960DD694D60B2
:1025B00003F1180155688D42A7D1196A5160A4E74B
:1025C0000D4A1368013313604FF0000C604638BDAC
:1025D00014010020380100201C0100203C020020D2
:1025E000B00100202801002084010020800100208B
:1025F00024010020340100202C01002010B500F03F
:10260000D5FD464B1A68013A1A601B68002B7FD132
:10261000434B1B683BB91C467BE0196A516015E0CF
:10262000D968516021E000233E4A1268002A4AD04E
:102630003C4BDB68DB689A6AD869196A8160D869A3
:102640004860506803F118018842E6D00021996281
:102650001168013911605A699868D9688160986871
:1026600048605168181D8142DAD000215961116813
:1026700001391160DA6A2C4909688A4201D92A496C
:102680000A602A4902EB820201EB820252689A60D8
:102690009468DC6060609060DA6A02EB820001EBB3
:1026A00080045C6151F82000013002EB820241F8A5
:1026B0002200D96A1E4A1268D26A9142B4D91D4AD0
:1026C00001211160B0E70BB1FFF7B4FC1A4B1C6895
:1026D00094B9184B1C68E4B1154B1B684FF0E0230C
:1026E0004FF08052C3F8042DBFF34F8FBFF36F8FAD
:1026F00001240EE0013C07D0FFF7C8FE0028F9D006
:102700000C4B01221A60F5E70B4B00221A60E0E740
:10271000002400F05BFD204610BD00BF1401002026
:102720003C0100206C01002034010020B001002099
:102730003C020020280100202C01002010B550B9D7
:102740004FF0E0234FF08052C3F8042DBFF34F8FBA
:10275000BFF36F8F10BD0446FFF78AFE00212046AD
:10276000FFF7C6FDFFF74AFF0028F3D1E8E70000B6
:102770001B4B1B681BB11B4B01221A607047194B86
:1027800000221A60184B1B6800E0013B03EB830238
:10279000164951F82220002AF7D0084603EB83029D
:1027A00001EB820251684968516003EB8302920099
:1027B0000832024491420CD003EB83010B4A02EB36
:1027C00081025268D1680A4A116007490B60136898
:1027D000704703EB830100EB8102D1685160EBE7A6
:1027E000140100202801002034010020B001002045
:1027F0003C02002010B50C46044B19681831FFF755
:102800005FFA01212046FFF773FD10BD3C02002056
:1028100010B50346084696465A680F490C68E261AF
:10282000D1F800C09468CCF82040D1F800C00CF179
:10283000180CC4F804C00C68183494600A689362D9
:102840001968013119607146BEF1000F01D04FF0D7
:10285000FF30FFF74DFD10BD3C020020C368DB6870
:102860009A6AD869196A8160D8694860516803F129
:102870001800814244D00021996211680139116029
:102880002B4A1268002A41D15A699868D968816038
:10289000986848605168181D814234D00021596100
:1028A000116801391160DA6A224909688A4201D93E
:1028B00020490A60204902EB820201EB8202526841
:1028C0009A60D2F808C0C3F80CC0CCF8040090603D
:1028D000DA6A02EB820001EB800CC3F814C051F8F5
:1028E0002000013002EB820241F82200DA6A134B29
:1028F0001B68DB6A9A4218D90120114B1860704797
:10290000196A5160B7E7D9685160C7E70D4A516845
:10291000D961D1F808C0C3F820C0CCF804008860A1
:102920009A62116801311160E0E70020704700BF32
:102930001401002034010020B00100203C020020DE
:10294000280100206C010020034B1B680360034B2F
:102950001B684360704700BF24010020380100203D
:1029600070B504460D4600F021FC144B19686368ED
:10297000C81A2A68B2F1FF3F1AD0DFF844C0DCF869
:1029800000C02668664505D08B4203D800232B6023
:1029900001240EE0824203D800232B60012408E0CA
:1029A0005B1A13442B602046FFF7CEFF002400E0A3
:1029B000002400F00BFC204670BD00BF3801002051
:1029C00024010020014B01221A60704728010020D9
:1029D000F8B5044616461D46364B1B68034493F86B
:1029E0005030022B02D00F46069BEBB900F0DEFB05
:1029F0003DB1304B1B6804F1120203EB82035B68AC
:102A00002B602C4B1B68234493F85030022B44D08E
:102A100000231D46274B1B682344002283F85020C7
:102A200000F0D4FB2846F8BDFFF722FD00F0BEFB06
:102A3000204B1B68234493F85030022B28D01D49AB
:102A40000B6804F1120203EB82035A6822EA0702C0
:102A50005A600B6823444FF0010283F8502000F0C5
:102A6000B5FB01210698FFF743FC01231F46FFF742
:102A7000C5FD002FBAD00028B8D14FF0E0234FF0A9
:102A80008052C3F8042DBFF34F8FBFF36F8FADE7B4
:102A900000F09CFB00231F46E9E7064B1B6804F18E
:102AA000120203EB82035A6822EA06025A600123EB
:102AB0001D46AFE73C020020F8B504460D46174618
:102AC0001E4600F073FB069B33B105F1120304EBC5
:102AD00083035B68069A1360631993F85010C9B2B8
:102AE000022283F85020032E21D00AD8012E11D0C3
:102AF000964215D1123504EB85056B6801336B6086
:102B00000EE0042E0CD1022959D0123504EB8505B4
:102B10006F6005E0123504EB85056B683B436B6025
:102B2000012909D0012400F051FB2046F8BD1235DF
:102B300004EB85056F60F3E76369A168E2688A606A
:102B4000A16851605A68211D8A4235D00022626115
:102B50001A68013A1A60E36A1B4A1268934201D963
:102B6000194A1360194A03EB830302EB83035B6882
:102B7000A3609868E06041609960E36A03EB8301B9
:102B800002EB8100606152F82110013103EB8303F5
:102B900042F823100E4B1B68DA6AE36A9A4210D29D
:102BA0004FF0E0234FF08052C3F8042DBFF34F8F56
:102BB000BFF36F8F0124B6E7E2685A60C6E70024CE
:102BC000B1E70124AFE700BF34010020B0010020CD
:102BD0003C020020064B1A6813682BB901230360DE
:102BE00023B9D368186870470023F8E700207047BE
:102BF0005002002008B54160006191420CD8D21A01
:102C000083699A4201D3012008BD011D094B186850
:102C1000FFF756F80020F7E79A4201D2994206D210
:102C2000011D054B1868FFF74BF80020ECE7012069
:102C3000EAE700BF4C0200205002002070B50446B5
:102C40000D46164604E0A3691D44236A20469847B2
:102C5000A1692B46324629442046FFF7CBFF0028C6
:102C6000F1D170BD70B505460E460D4B1B68DB6893
:102C7000DC68201DFFF740F894F8243013F0040FAF
:102C800007D123F0010384F82430236A20469847B3
:102C900070BD324629462046FFF7D0FFF5E700BF5A
:102CA0005002002008B505E0DB684FF0FF311868DE
:102CB000FFF7D8FF054B1B681A68002AF4D1044AB5
:102CC000106802490860136008BD00BF5002002070
:102CD0004C02002038B50546FFF7D2FB0446074BEF
:102CE0001B68834205D800232B60044B1C602046E0
:102CF00038BDFFF7D7FF01232B60F6E74002002025
:102D000070B582B005460C46FFF7B2FB01A8FFF78D
:102D1000E1FF019B3BBB0646E4B9A84213D2224621
:102D2000A91B134B1868FFF75CF9FFF767FCE0B9C4
:102D30004FF0E0234FF08052C3F8042DBFF34F8FC4
:102D4000BFF36F8F11E0FFF759FC31462846FFF7BC
:102D500089FF0AE0074A1268126812B901231C466B
:102D6000DDE71C46DBE7FFF749FC02B070BD00BFA2
:102D7000480200204C02002030B585B000230193AA
:102D800002930393002201A93A4B1868FFF7A1F8B8
:102D900000286CD0019B002BF4DB039C002CF1D0AD
:102DA000636913B1201DFEF7A7FF6846FFF792FF86
:102DB0000546019905294CD032DC032942D010DDAB
:102DC0000429DFD194F8243043F0010384F824303F
:102DD0000299A1612B462A4629442046FFF70AFFA3
:102DE000D0E701390129CDD894F8243043F001030C
:102DF00084F82430029BA1692A4619442046FFF733
:102E0000F9FE0028BED094F8243013F0040F11D13D
:102E100023F0010384F82430236A20469847B1E761
:102E200008290FD002DD0929CCD0ABE706390129EA
:102E3000DAD9A7E7A3692A46029919442046FFF781
:102E4000FDFEE9E794F8243023F0010384F82430F0
:102E500098E794F8243013F0020F04D023F0010314
:102E600084F824308EE7204600F022F98AE705B086
:102E700030BD00BF4802002000B583B001A8FFF7B5
:102E8000A9FE0199FFF73CFFFFF776FFF6E7000088
:102E900008B500F08BF90D4B1B6813B100F096F9E3
:102EA00008BD0B48FEF7FEFE0A48FEF7FBFE0A4B84
:102EB000074A1A60094B074A1A6000220C210A20AF
:102EC000FEF7DDFF014B1860E8E700BF4802002075
:102ED0006802002054020020500200204C02002012
:102EE00000B583B0FFF7D4FF084B1B685BB1084BFC
:102EF0000193032300930023802206490648FFF72D
:102F000049FA03B000BD1846FBE700BF48020020A5
:102F1000440200208C400008792E0008104A12F06C
:102F2000070F1AD0D11D21F00701C1F570531344CA
:102F30000A460C480260002141601344083B23F01C
:102F400007030948036059601960991A51601360BA
:102F5000064B1960064B196070474FF47053E8E751
:102F600098020020900200208C02002084020020A1
:102F700088020020144B1A461B688342FBD3516819
:102F800002EB010C844509D0416800EB010C63455C
:102F900009D00360904200D010607047406801443F
:102FA00051601046F0E7DFF824C0DCF800C063454C
:102FB00006D05B681944416013681B680360E9E749
:102FC000C0F800C0E6E700BF900200208C0200209D
:102FD00038B5044670B110F1090F0AD8083414F05E
:102FE000070307D0C3F10802093BA34213D31444DB
:102FF00000E00024FFF73CFA284B1B686BB1002C63
:1030000041DB002C42D0264BD3F800C0A4453FD36F
:1030100024490B6806E00024ECE7FFF77FFFEEE7AA
:10302000194613465A68A24202D21A68002AF7D1FA
:103030001A4A12689A422ED00A68083215461A684F
:103040000A605868001B102805D91A1950605C6086
:10305000086818510A605968ACEB01021048026018
:1030600011480068824201D20F48026041F00041DD
:10307000596000221A600D4A136801331360FFF78C
:10308000BDFA284638BD00231D46F8E72546F6E779
:1030900000231D46F3E700231D46F0E78C020020C5
:1030A000880200209002002084020020800200207C
:1030B00018B338B50446A0F108031D4650F8043C87
:1030C000002B00DB38BD50F8082C002AFAD123F081
:1030D000004340F8043CFFF7CBF954F8041C074ABE
:1030E00013680B4413602846FFF744FF044A136833
:1030F00001331360FFF782FAE4E77047880200208B
:103100007C02002082B0002301934FF0500383F330
:103110001188BFF36F8FBFF34F8F019B002BFCD043
:1031200002B0704708480068006880F308884FF0D4
:10313000000080F3148862B661B6BFF34F8FBFF30F
:103140006F8F00DF00BF000008ED00E0DFF80C002B
:10315000016841F4700101607047000088ED00E0F3
:103160004FF0807340F8043C21F0010140F8081C46
:10317000054B40F80C3C40F8202C6FF0020340F85F
:10318000243C4438704700BF05310008064B1968DD
:103190000868B0E8F04F80F30988BFF36F8F4FF0F5
:1031A000000080F3118870473C0200204FF050036C
:1031B00083F31188BFF36F8FBFF34F8F024A1368F9
:1031C00001331360704700BF08000020034A1368F2
:1031D000013B13600BB983F311887047080000208E
:1031E000EFF30980BFF36F8F134B1A681EF0100FB7
:1031F00008BF20ED108A20E9F04F106009B44FF0AD
:10320000500080F31188BFF34F8FBFF36F8FFFF72C
:10321000AFFA4FF0000080F3118809BC1968086804
:10322000B0E8F04F1EF0100F08BFB0EC108A80F32A
:103230000988BFF36F8F70473C02002008B54FF03C
:10324000500383F31188BFF36F8FBFF34F8FFFF7E6
:103250001DF928B14FF0E0234FF08052C3F8042D40
:10326000002383F3118808BD4FF0E022002313618F
:103270009361054B1B680549A1FB03139B09013BA7
:10328000536107231361704704000020D34D62107F
:1032900038B54FF0E024D4F8203D43F47F03C4F860
:1032A000203DD4F8203D43F07F43C4F8203D002565
:1032B000C4F81C5DFFF7D8FF084B1D60FFF746FF01
:1032C000D4F8343F43F04043C4F8343FFFF72AFFBB
:1032D000FFF74EFAFFF716FF284638BD080000201A
:1032E000DFF834D0FEF7AEFC0C480D490D4A002340
:1032F00002E0D458C4500433C4188C42F9D30A4AAB
:103300000A4C002301E013600432A242FBD300F018
:1033100041F8FDF79BF870470000022000000020F4
:103320005C000020F44000085C000020E03F00202A
:10333000FEE700000EB410B59DB01FAB02900690E2
:103340006FF000410A48079104910A4953F8042B91
:103350000591002402A9006801931B9400F0A4F9D0
:10336000029B1C701DB0BDE8104003B0704700BF49
:103370000C0000200802FFFF02440346934200D1E4
:10338000704703F8011BF9E7014B1868704700BF4D
:103390000C00002070B50D4B0D4C00261D1BB6EB2C
:1033A000A50F09D100F008FE0A4C0B4B00261D1B8F
:1033B000B6EBA50F05D170BD54F8043B9847013614
:1033C000EDE754F8043B98470136F1E7EC4000087C
:1033D000EC400008EC400008F040000870477047DF
:1033E0000A44914200F1FF3300D1704710B511F843
:1033F000014B03F8014F9142F9D110BD37B50029B7
:1034000044D051F8043C0190002BA1F10404B8BF52
:10341000E41800F0DDF81E4A0198136833B96360C0
:10342000146003B0BDE8304000F0D8B8A34208D91A
:10343000256861198B4201BF19685B6849192160D1
:10344000EDE71A465B680BB1A342FAD9116855182B
:10345000A5420BD1246821445418A3421160E0D145
:103460001C685B6853600C441460DAE702D90C23D3
:103470000360D6E7256861198B4204BF19685B6851
:10348000636004BF491921605460CAE703B030BDCE
:10349000DC3F002070B50F4C0E462168054611B97F
:1034A00000F0B4FB20603146284600F0AFFB431C1F
:1034B00003D14FF0FF34204670BDC41C24F0030438
:1034C000A042F8D0211A284600F0A0FB0130F2D12A
:1034D000EFE700BFD83F00202DE9F843CD1C25F0D1
:1034E000030508350C2D38BF0C25002D064601DBE1
:1034F000A94204D90C2333600020BDE8F883334F80
:1035000000F066F83B681C463CBB29463046FFF796
:10351000C1FF431C044656D13C68A046B8F1000FD9
:1035200040D1002C49D023684146304604EB0309C2
:1035300000F06CFB814540D121686D1A2946304668
:10354000FFF7A8FF013038D023682B4423603B6885
:103550005A685ABBC7F800800EE02268521B1ED47E
:103560000B2A16D96119A342256018BF59606368F8
:1035700008BF396062514B60304600F02FF804F10B
:103580000B00231D20F00700C21A1CBF1B1AA350FA
:10359000B3E76268A3420CBF3A605A60ECE7234687
:1035A0006468B1E74446D8F80480B7E71A465B6818
:1035B000A342FBD100235360DEE70C233360304687
:1035C00000F00CF898E70560D6E700BFDC3F00206C
:1035D0000148FFF703BF00BFD43F00200148FFF7B9
:1035E000FEBE00BFD43F00202DE9F0478E681F4685
:1035F000BE4282460C469046334653D8B1F90C0081
:1036000010F4906F2BD065692368096905EB4505B7
:10361000A3EB010905EBD5757B1C6D104B44AB4248
:103620002A4684BF1D462A46430527D511465046E3
:10363000FFF752FF064658B321694A46FFF7D0FE0E
:10364000A38923F4906343F08003A381266165611D
:103650004E44A5EB09052660A5603E463B461F4645
:1036600020683A46414600F0B7FAA3689B1BA36066
:1036700023683B4423600020BDE8F087504600F0FB
:10368000D5FA06460028E1D121695046FFF7B6FE7B
:103690000C23CAF80030A38943F04003A3814FF004
:1036A000FF30E9E73E46DBE72DE9F0471F468B890F
:1036B0001B069CB006460D46144610D50B6973B91F
:1036C0004021FFF709FF2860286130B90C233360DF
:1036D0004FF0FF301CB0BDE8F08740236B61002342
:1036E000099320238DF8293003973023654F8DF8F7
:1036F0002A304FF0010823461A7899461AB1252A34
:1037000003F10103F8D1B9EB040A0BD0534622466A
:1037100029463046FFF768FF013000F0A380099A80
:103720005244099299F80030002B00F09B8000224F
:103730004FF0FF33CDE9053209F1010904920792F8
:103740008DF853201A924C46052214F8011B4D485F
:10375000FCF746FD049AD0B9D00644BF20238DF86B
:103760005330110744BF2B238DF8533099F80030A4
:103770002A2B13D007994B4600204FF00A0C1A78D9
:10378000303A092A1C464AD9A8B1079113E0C01B58
:1037900008FA00F010430490A146D4E7039B191DDA
:1037A0001B680391002BBBBF5B4242F002020793F0
:1037B0000793B8BF049223782E2B0AD163782A2B63
:1037C00032D1039B1A1D1B68039243EAE373023450
:1037D0000593DFF8C090217803224846FCF700FDEE
:1037E00038B1049BA0EB090040228240134301340E
:1037F0000493217824488DF828100622FCF7F0FC69
:10380000002835D0214818BB039B073323F007035A
:1038100008330393099B0344013409936BE7013395
:103820000CFB01210120AAE700230593611C184627
:103830004FF00A0C0A78303A092A0C4603D9002BBB
:10384000C7D00590C5E701310CFB00200123F1E74B
:1038500003AB00932A460E4B04A93046AFF3008019
:10386000421CD7D1AB895B063FF532AF099831E7EF
:1038700003AB00932A46064B04A9304600F082F8B9
:10388000EEE700BFB0400008BA40000800000000AA
:10389000E9350008B64000082DE9F0479146984602
:1038A0008A680B69089E9342B8BF1346C9F8003076
:1038B00091F8432007460C4612B10133C9F8003095
:1038C0002368990642BFD9F800300233C9F80030A6
:1038D000256815F0060507D104F1190AE368D9F83F
:1038E00000209B1AAB4229DC94F843302268003B4D
:1038F00018BF012392062ED404F1430241463846F4
:10390000B047013021D02368A168226903F0060383
:10391000042B01BFE568D9F80030ED1A25EAE575FA
:1039200018BF00258B1A2B449142C8BF1D464FF08B
:1039300000091A344D451AD1002008E001235246EF
:1039400041463846B047013003D14FF0FF30BDE863
:10395000F0870135C2E7E1185A1C302081F8430096
:10396000224494F8451082F843100233C4E701233F
:10397000224641463846B0470130E6D009F10109F8
:10398000D8E700002DE9F04398460B7E85B0782BF0
:10399000174606460C9A0C4609D8622B01F14301E2
:1039A00008D8002B00F0DC80582B00F0BD8004F11B
:1039B000420539E0A3F163001528F8D801A555F8B0
:1039C00020F000BF1D3A0008313A0008AF39000866
:1039D000AF390008AF390008AF390008313A0008A4
:1039E000AF390008AF390008AF390008AF39000817
:1039F000413B00085D3A0008EF3A0008AF39000883
:103A0000AF390008693B0008AF3900085D3A00088B
:103A1000AF390008AF390008F73A00081368191DDC
:103A20001B68116004F1420584F842300123A8E0CC
:103A300013682568181D1060280601D51B6803E06F
:103A40006A06FBD5B3F90030002B03DA2D225B4266
:103A500084F84320DFF878C10A2213E02568106853
:103A600015F0800F50F8043B02D16D0648BF9BB2A1
:103A70001060227EDFF858C16F2A5DD10822002035
:103A800084F843006568A560002D05DB20681D43B0
:103A900020F00400206051D00D46B3FBF2F002FB91
:103AA000103E9A421CF80EE005F801ED0346F4D9E9
:103AB000082A0BD12368DA0708D5236962689A427D
:103AC000DEBF302305F8013C05F1FF35491B2161BC
:103AD000CDF800803B4603AA21463046FFF7DCFEC6
:103AE000013053D14FF0FF3005B0BDE8F0832368BB
:103AF00043F020032360DFF8DCC0782384F84530EE
:103B00002068156810F0800F55F8043B03D110F0C1
:103B1000400F18BF9BB21560C50744BF40F020009E
:103B2000206023B11022AAE7DFF8A4C0E6E72268EC
:103B300022F020022260F5E70A22A0E70D46B7E74F
:103B40001368D4F800C060691D1D15601CF0800F5B
:103B50001B6801D0186003E01CF0400FFAD01880F9
:103B6000002323610D46B3E71368191D11601D681A
:103B7000626800212846FCF733FB08B1401B6060F7
:103B800063682361002384F84330A1E723692A4650
:103B900039463046C0470130A4D023689B0714D46F
:103BA000E068039B9842B8BF18469DE7012304F1E3
:103BB000190239463046C047013093D00135E368D9
:103BC00003995B1AAB42F1DCEAE70025F7E700BF97
:103BD000C1400008D2400008884210B501EB020441
:103BE00002D98442234607D8431EA14207D011F8C8
:103BF000012B03F8012FF8E70244824200D110BDE7
:103C000013F8011D02F8011DF7E7000038B5064C56
:103C10000023054608462360FEF71EF8431C02D128
:103C2000236803B12B6038BDD03F00202DE9F0415F
:103C3000074615460C4621B9BDE8F0411146FFF78D
:103C40004BBC2AB9FFF7DAFB2C462046BDE8F081D1
:103C500000F01AF88542064602D8B5EB500FF4D8AA
:103C600029463846FFF738FC804608B94446ECE759
:103C7000B5422A46214628BF3246FFF7B1FB21460E
:103C80003846FFF7BBFBF1E751F8043C181F002B47
:103C9000BCBF0B58C01870472DE9F04782B00646EC
:103CA000DDF828E00846B4460D46002B4ED18A4286
:103CB00014466DD9B2FA82F242B1C2F120039540A6
:103CC00026FA03F394401D4306FA02FC260CA7B221
:103CD000B5FBF6F14FEA1C4306FB115543EA0543D9
:103CE00001FB07F0984209D9E31801F1FF3580F094
:103CF0000381984240F20081023923441B1A1FFAC3
:103D00008CFCB3FBF6F006FB10334CEA034C00FBD3
:103D100007F363450AD914EB0C0C00F1FF3580F072
:103D2000ED80634540F2EA80A444023840EA014055
:103D3000ACEB030C0021BEF1000F04D02CFA02F30F
:103D40000022CEE9003202B0BDE8F0878B4209D9EB
:103D5000BEF1000F01D0CEE900610021084602B09B
:103D6000BDE8F087B3FA83F1174600294DD18342AD
:103D700002D3B24200F20F81B6EB070C60EB0303F3
:103D800001201D46BEF1000FDDD0CEE900C5DAE707
:103D9000002A00F098801A46B4FA84F3002B40F011
:103DA000AF800B1B270CA6B20121B3FBF7F54FEA3E
:103DB0001C4007FB153340EA034306FB05F8984512
:103DC00007D9E31805F1FF3002D2984500F2E880E8
:103DD0000546A3EB08031FFA8CFCB3FBF7F007FBC7
:103DE00010334CEA034C06FB00F3634508D914EB8F
:103DF0000C0C00F1FF3602D2634500F2CE80304653
:103E0000ACEB030C40EA054095E7C1F120058B407F
:103E100022FA05FC4CEA030C00FA01F426FA05F339
:103E2000E84002FA01F943EA04084FEA1C4206FAA4
:103E300001FAB0FBF2F71FFA8CF602FB17004FEA0B
:103E4000184444EA004407FB06F0A0420AD91CEBE0
:103E5000040407F1FF3380F09C80A04240F2998077
:103E6000023F6444241A1FFA88F3B4FBF2F002FB09
:103E7000104443EA044300FB06F69E4209D91CEBBA
:103E8000030300F1FF3480F082809E427FD9023824
:103E9000634440EA0740A0FB09749B1BA3423E46D3
:103EA000A04664D361D0BEF1000F0AD0BAEB06027F
:103EB00063EB080303FA05F5CA401543CB40CEE98E
:103EC000005300213FE7730843EAC1734A08190C05
:103ED00041EA02414FEAC67C9BB2B2FBF4F02646AF
:103EE000A04627461F2243EA0143B1FBF4F1A3EBAE
:103EF000080341EA004158E72946FFE6284615E74E
:103F00001A46C3F120019C4026FA01F320FA01F180
:103F100090400343270C06FA02FCB1FBF7F0A6B26F
:103F200007FB1015190C41EA054100FB06F58D420F
:103F30003BD9611801D28D4220D8491B0138B1FB11
:103F4000F7F5019505FB06F8019D9BB207FB1511DE
:103F500043EA0143434526D2E31805F1FF31C6D2B7
:103F60004345C4D2A91E2344C1E7BA459BD2B7EB4F
:103F7000090664EB0C040138A04694E7651B29444C
:103F80000238B1FBF7F5019505FB06F8DCE72046A2
:103F90007FE71F4666E70846F4E6A44402382FE7A9
:103FA000023D234415E70199A1E7491BB1FBF7F551
:103FB000019505FB06F8C7E7F8B500BFF8BC08BCDB
:103FC0009E467047F8B500BFF8BC08BC9E467047D7
:103FD0005B53656E736F725D20F09F8CA1EFB88F9D
:103FE00020526561642054656D703A20256C752CF3
:103FF000206E6F74696679696E67204C6F676765BC
:10400000722E2E2E0D0A00005B4C6F676765725D85
:1040100020F09F93A62052656365697665642054FD
:10402000656D703A20256C752E20536176696E6738
:1040300020746F20466C6173682E2E2E0D0A0D0AB7
:10404000000000000D0A3D3D3D204672656552545A
:104050004F53204C616220363A205461736B204EDE
:104060006F74696669636174696F6E203D3D3D0DD3
:104070000A0000004C6F67676572000053656E733D
:104080006F72000049444C4500000000546D7220DE
:1040900053766300000000000102030400000000EA
:1040A00000000000010203040607080906000000E2
:1040B000232D302B2000686C4C0065666745464711
:1040C0000030313233343536373839414243444594
:1040D0004600303132333435363738396162636403
:0440E0006566000011
:0840E400ECC0FF7F01000000A9
:0440EC001D030008A8
:0440F000F5020008CD
:1040F400100000000024F400AAAAAAAA10000020BC
:1041040000000000983E0020003F0020683F00208F
:10411400000000000000000000000000000000009B
:10412400000000000000000000000000000000008B
:10413400000000000000000000000000000000007B
:0C4144000000000000000000000000006F
:04000005080032E1DC
:00000001FF
