:020000040800F2
:1000000000000220AD2000088105000883050008DB
:100010008505000887050008890500080000000024
:100020000000000000000000000000008B05000838
:100030008D050008000000008F05000891050008EC
:10004000FD200008FD200008FD200008FD2000081C
:10005000FD200008FD200008FD200008FD2000080C
:10006000FD200008FD200008FD200008FD200008FC
:10007000FD200008FD200008FD200008FD200008EC
:10008000FD200008FD200008FD200008FD200008DC
:10009000FD200008FD200008FD200008FD200008CC
:1000A000FD200008FD200008FD200008FD200008BC
:1000B000FD200008FD200008FD200008FD200008AC
:1000C000FD200008FD200008FD200008FD2000089C
:1000D000FD200008FD20000895050008FD2000080F
:1000E000FD200008FD200008FD200008FD2000087C
:1000F000FD200008FD200008FD200008FD2000086C
:10010000FD200008FD200008FD200008FD2000085B
:10011000FD200008FD200008A5050008FD200008BE
:10012000FD200008FD200008FD200008FD2000083B
:10013000FD2000080000000000000000FD20000875
:10014000FD200008FD200008FD200008FD2000081B
:10015000FD200008FD200008FD200008FD2000080B
:10016000FD200008FD200008FD200008FD200008FB
:10017000FD200008FD200008FD2000080000000010
:1001800000000000FD20000800000000000000004A
:10019000FD2000080000000000000000FD20000815
:1001A000000000000000000000000000FD2000082A
:1001B000FD200008FD200008FD200008FD200008AB
:0401C000FD20000816
:1001D00010F8012B11F8013B012A28BF9A42F7D0F1
:1001E000D01A7047034613F8012B002AFBD1181AC6
:1001F000013870470000000000000000000000000F
:1002000001F0FF01102A2BDB10F0070F08D010F8C7
:10021000013B013A8B422DD010F0070F42B3F6D1CB
:10022000F0B441EA012141EA014122F007047FF0E4
:1002300000070023F0E80256083C85EA010586EA3B
:10024000010685FA47F5A3FA87F586FA47F6A5FA77
:1002500087F68EB9EED1F0BC01F0FF0102F0070283
:1002600032B110F8013B013A83EA010313B1F8D12E
:100270000020704701387047002D06BF354603380F
:10028000073815F0010F07D1013015F4807F02BF48
:10029000013015F4C03F0130F0BC0138704700BF99
:1002A00053B94AB9002908BF00281CBF4FF0FF31DD
:1002B0004FF0FF3000F00CB8ADF1080C6DE904CE42
:1002C00002F0E4FBDDF804E0DDE9022304B070474E
:1002D000704700BF0348044B834202D0034B03B175
:1002E000184770475C0000205C0000200000000000
:1002F0000548064B1B1AD90F01EBA301491002D088
:10030000034B03B1184770475C0000205C000020DD
:100310000000000010B5064C237843B9FFF7DAFF60
:10032000044B13B10448AFF300800123237010BDC8
:100330005C00002000000000AC2D000808B5054B53
:100340001BB105490548AFF30080BDE80840FFF741
:10035000CFBF00BF0000000060000020AC2D0008EF
:1003600010B50446FFF73EFF4FF0FF3382B221463F
:10037000014800F075FC10BD8801002008B5026836
:10038000074B9A4200D008BD064B1978064801F089
:1003900061FE01220349054800F0B9FEF3E700BF02
:1003A00000440040780000207C00002088010020EC
:1003B0000023036001207047002070470020704731
:1003C00008B50268034B9A4200D008BD01F03EFC1C
:1003D000FBE700BF0010004072B6FEE710B594B016
:1003E00007AC34220021204601F0C0FE0023029316
:1003F00003930493059306930093194A116C41F0FB
:1004000080511164126C02F080520092009A0193A4
:1004100014490A6822F4404242F480420A600A68A1
:1004200002F440420192019A0222079201220A92AA
:1004300010220B920D93204601F004F860B90F23AF
:1004400002930146039004900590069002A800F0E4
:1004500071FE18B914B010BDFFF7BEFFFFF7BCFF67
:10046000003802400070004008B501F0D5FBFFF7EE
:10047000B5FF00F01BF800F02BF8084801F0D8FD9C
:1004800001F07CFD0648FFF76BFF01220549064895
:1004900000F03DFE014801F07FFDFBE77C000020FD
:1004A000C42D0008780000208801002082B00023BD
:1004B0000193064B1A6B42F001021A631B6B03F0A7
:1004C00001030193019B02B0704700BF0038024056
:1004D00008B50A480A4B03604FF4E1334360002338
:1004E0008360C36003610C2242618361C36100F0D9
:1004F00087FB00B908BDFFF76FFFFBE7880100200D
:100500000044004000B589B0002303930493059391
:10051000069307930268184B9A4201D009B000BDB8
:100520000021019103F5FA331A6C42F400321A6487
:100530001A6C02F400320192019A02911A6B42F095
:1005400001021A631B6B03F001030293029B0C234D
:10055000039302230493032306930723079303A91A
:10056000064801F093F900221146262001F040FBD5
:10057000262001F04DFBD1E700440040000002407E
:10058000FEE7FEE7FEE7FEE7FEE7704770477047CD
:100590007047000008B5024800F050FC08BD00BFDD
:1005A0008801002008B5024800F0BCF808BD00BF73
:1005B000D001002082B0002100910B4B5A6C42F414
:1005C00080425A645A6C02F480420092009A01916F
:1005D0001A6C42F080521A641B6C03F08053019332
:1005E000019B02B0704700BF0038024030B589B0AF
:1005F000044600230193224B1A6C42F010021A6445
:100600001B6C03F010030193019B02A903A800F0E7
:1006100067FE069BCBB900F043FE0346194AA2FBD6
:1006200003239B0C013B1848184A026040F2E73252
:10063000C2604360002303618360836100F08AF934
:10064000054630B1284609B030BD00F029FE430010
:10065000E4E70D4800F020F805460028F2D13620E6
:1006600001F0D6FA0F2C02D901231D46EAE7002239
:100670002146362001F0BCFA054B1C60E2E700BFC2
:100680000038024083DE1B43D001002000100040F0
:10069000040000207047000090F83D30012B37D156
:1006A000022380F83D300268D36843F00103D36031
:1006B0000368194A934220D0B3F1804F1DD0A2F5B0
:1006C0007C42934219D002F58062934215D002F524
:1006D0008062934211D002F5784293420DD002F528
:1006E0007052934209D0A2F59432934205D01A6811
:1006F00042F001021A60002070479A6802F0070277
:10070000062A07D01A6842F001021A6000207047DA
:10071000012070470020704700000140704770477B
:100720007047704770B504460368DE681D6915F0B0
:10073000020F10D016F0020F0DD06FF002021A61F6
:100740000123037703689B6913F0030F5ED0FFF763
:10075000E6FF0023237715F0040F12D016F0040FE4
:100760000FD023686FF004021A61022323772368F5
:100770009B6913F4407F4FD02046FFF7D0FF002342
:10078000237715F0080F12D016F0080F0FD023684A
:100790006FF008021A61042323772368DB6913F0E2
:1007A000030F40D02046FFF7BAFF0023237715F050
:1007B000100F12D016F0100F0FD023686FF0100238
:1007C0001A61082323772368DB6913F4407F31D053
:1007D0002046FFF7A4FF0023237715F0010F02D076
:1007E00016F0010F2DD115F0800F02D016F0800FFA
:1007F0002FD115F0400F02D016F0400F31D115F077
:10080000200F02D016F0200F33D170BDFFF786FF06
:100810002046FFF785FF9CE72046FFF77FFF204635
:10082000FFF77EFFABE72046FFF778FF2046FFF794
:1008300077FFBAE72046FFF771FF2046FFF770FF0A
:10084000C9E723686FF001021A612046FFF7B8FD7F
:10085000C9E723686FF080021A61204600F0A7F80C
:10086000C7E723686FF040021A612046FFF759FF7F
:10087000C5E723686FF020021A61204600F096F861
:10088000C3E700000368324A904212D0B0F1804FB3
:100890000FD0A2F57C4290420BD002F580629042CC
:1008A00007D002F58062904203D002F57842904270
:1008B00003D123F070034A681343254A90422AD09B
:1008C000B0F1804F27D0A2F57C42904223D002F5B0
:1008D000806290421FD002F5806290421BD002F5E8
:1008E0007842904217D002F57052904213D002F530
:1008F000806290420FD002F5806290420BD0A2F548
:100900009832904207D002F58062904203D002F5FF
:100910008062904203D123F44073CA68134323F0EA
:1009200080034A6913438A68C2620A688262084A7D
:10093000904203D002F58062904201D10A690263BD
:10094000026842F0040202600122426103607047C3
:100950000000014040B310B5044690F83D30F3B1BB
:10096000022384F83D30214651F8040BFFF78AFF3B
:10097000012384F8463084F83E3084F83F3084F810
:10098000403084F8413084F8423084F8433084F8B1
:10099000443084F8453084F83D30002010BD80F8A4
:1009A0003C30FFF777FEDBE7012070477047704768
:1009B000026802F10C0353E8003F23F490730C32F9
:1009C00042E800310029F3D1026802F1140353E830
:1009D000003F23F00103143242E800310029F3D133
:1009E000036B012B05D0202380F8423000230363E2
:1009F0007047026802F10C0353E8003F23F0100334
:100A00000C3242E800310029F3D1ECE790F8413094
:100A1000212B01D0022070478368B3F5805F17D087
:100A2000036A5A1C02621A7803685A60C38C9BB22C
:100A3000013B9BB2C3844BB90268D36823F08003A7
:100A4000D3600268D36843F04003D360002070474E
:100A50000369002BE4D1036A1B880268C3F308030F
:100A60005360036A02330362E0E7000010B50446F6
:100A70000268136923F44053C1680B431361836810
:100A800002691A4343691A43C3691A430168CB6870
:100A900023F4164323F00C031343CB60026853691D
:100AA00023F4407381690B4353610368314A9342D5
:100AB00006D002F58062934202D000F0F1FB01E023
:100AC00000F0FEFBE369B3F5004F29D000210318C5
:100AD00049411B1841F10001C90041EA5371DB0093
:100AE000181863684FEA83024FEA937341F10001DB
:100AF000FFF7D6FB204AA2FB00314909642303FB20
:100B000011031B013233A2FB03235B0903F0F00244
:100B100002EB011203F00F03216813448B6010BD38
:100B20000023021843EB0301121841F10001C90030
:100B300041EA5271D200101841F100016268921826
:100B40005B41FFF7ADFB0C4AA2FB0031490964236E
:100B500003FB1103DB003233A2FB03235B095A00C2
:100B600002F4F87202EB011203F007032168134448
:100B70008B60D4E7001001401F85EB512DE9F04157
:100B800082B004460D4616469846089F23681B68A7
:100B900035EA03030CBF4FF0010C4FF0000CB445D5
:100BA00026D1B7F1FF3FF1D001F05CF84346C01AFF
:100BB000B84221D817B32368DA6812F0040FE5D0E1
:100BC000802DE3D0402DE1D01A6812F0080FDDD05F
:100BD000002501951A6801925B680193019B2046EC
:100BE000FFF7E6FE0823636484F84050012000E02C
:100BF000002002B0BDE8F0810320FAE70320F8E707
:100C000060B310B5044690F8413013B3242384F840
:100C100041302268D36823F40053D3602046FFF7A5
:100C200025FF2268136923F49043136122685369F6
:100C300023F02A0353612268D36843F40053D3603E
:100C400000206064202384F8413084F842306063DF
:100C500010BD80F84030FFF755FCD7E70120704702
:100C60002DE9F04184B01E4690F84130202B57D139
:100C700004460D46002957D003920AB9012050E0DE
:100C800000234364212380F8413000F0EBFF074646
:100C9000039BA384E384A368B3F5805F02D00023A1
:100CA000984616E023693BB30023984611E02023C1
:100CB00084F84130032034E0424632F8023B90464B
:100CC0002268C3F308035360E28C92B2013A92B2F5
:100CD000E284E38C9BB293B100963B4600228021D4
:100CE0002046FFF74BFF0028E1D1002DE4D015F896
:100CF000012B23685A60E7E7A8461D46E9E70096FE
:100D00003B46002240212046FFF738FF18B9202338
:100D100084F8413005E0202384F84130032000E0CE
:100D2000022004B0BDE8F0810120FAE7704708B561
:100D30000168CA6822F04002CA60202280F841207F
:100D4000FFF7F4FF002008BD704708B5806B002353
:100D5000C385FFF7F9FF08BD704790F84230222B9A
:100D600067D18368B3F5805F4DD0826AB3F5805F49
:100D700004D0002B54D10369002B51D103685B6868
:100D80001370836A01338362C38D9BB2013B9BB2B4
:100D9000C385002B4FD100B583B00268D36823F020
:100DA0002003D3600268D36823F48073D3600268A1
:100DB000536923F001035361202380F8423000235C
:100DC0004363036B012B31D100230363026802F1FB
:100DD0000C0353E8003F23F010030C3242E80031CB
:100DE0000029F3D103681A6812F0100F05D00191A1
:100DF0001A6801925B680193019B818DFFF7ACFF3C
:100E0000002003B000BD0269002AAED1826A0368E7
:100E10005B68C3F308031380836A02338362B3E71A
:100E200003685B6803F07F031370AAE7FFF7A6FA75
:100E3000E6E70220704700207047000010B582B03E
:100E4000044602681368D068516913F00F0F09D186
:100E500013F0200F0CD010F0200F09D02046FFF720
:100E60007CFF16E011F0010115D110F4907F12D132
:100E7000216B012979D013F0800F03D010F0800F7F
:100E800040F01F8113F0400F03D010F0400F40F0EE
:100E90001C8102B010BD13F0010F06D010F4807F4A
:100EA00003D0626C42F00102626413F0040F04D0BC
:100EB00019B1626C42F00202626413F0020F04D0B6
:100EC00019B1626C42F00402626413F0080F07D09B
:100ED00010F0200F00D119B1626C42F00802626478
:100EE000626C002AD5D013F0200F02D010F0200F32
:100EF00029D123685B6903F04003626C12F0080F8C
:100F000000D163B32046FFF753FD23685B6913F0FC
:100F1000400F20D0226802F1140353E8003F23F071
:100F20004003143242E800310029F3D1E36B73B17E
:100F3000684A1A65E06B00F0F1FD0028A9D0E06B6B
:100F4000036D9847A5E72046FFF707FFD1E7204646
:100F5000FFF7FAFE9DE72046FFF7F6FE99E72046E9
:100F6000FFF7F2FE0023636493E713F0100F82D0C3
:100F700010F0100F3FF47FAF00230193136801932B
:100F800053680193019B536913F0400F5ED0E26BED
:100F900013685B689BB2002B49D0A18D994246D95A
:100FA000E385D369B3F5807F36D0226802F10C0364
:100FB00053E8003F23F480730C3242E800310029EB
:100FC000F3D1226802F1140353E8003F23F0010338
:100FD000143242E800310029F3D1226802F11403EF
:100FE00053E8003F23F04003143242E80031002967
:100FF000F3D1202384F842302163226802F10C03EC
:1010000053E8003F23F010030C3242E8003100297E
:10101000F3D1E06B00F038FD02236363A18DE38D13
:101020009BB2C91A89B22046FFF796FE31E7A18D1F
:1010300099427FF42EAFD369B3F5807F7FF429AF57
:10104000022363632046FFF787FE22E7A18DE38D2D
:101050009BB2C91A89B2E38D9BB2002B3FF419AF42
:1010600000293FF416AF226802F10C0353E8003F59
:1010700023F490730C3242E800300028F3D1226848
:1010800002F1140353E8003F23F00103143242E855
:1010900000300028F3D1202384F8423020632268F6
:1010A00002F10C0353E8003F23F010030C3242E836
:1010B00000300028F3D1022363632046FFF74CFE83
:1010C000E7E62046FFF7A2FCE3E62046FFF72FFE07
:1010D000DFE600BF4B0D000881628285C2850023D8
:1010E0004364222380F84230036923B10268D36845
:1010F00043F48073D3600268536943F00103536182
:101100000268D36843F02003D3600020704708B51D
:1011100090F84230202B08D149B10AB9012008BD0E
:1011200000230363FFF7D8FFF9E70220F7E7012068
:10113000F5E70000002800F09B8070B50D460446DE
:101140004F4B1B6803F00F038B4208D2CBB24C4AC3
:101150001370136803F00F038B4240F08B802368F9
:1011600013F0020F17D013F0040F04D0454A936810
:1011700043F4E0539360236813F0080F04D0414A0E
:10118000936843F4604393603E4A936823F0F0030E
:10119000A1680B439360236813F0010F32D063689A
:1011A000012B21D09A1E012A25D9364A126812F045
:1011B000020F61D033498A6822F0030213438B6027
:1011C00000F050FD06462F4B9B6803F00C0362684D
:1011D000B3EB820F16D000F045FD801B41F288333F
:1011E0009842F0D9032042E0264A126812F4003FE8
:1011F000E0D101203BE0234A126812F0007FD9D1F0
:10120000012034E01E4B1B6803F00F03AB4207D9EB
:10121000EAB21B4B1A701B6803F00F03AB422DD1CF
:10122000236813F0040F06D0164A936823F4E053A2
:10123000E1680B439360236813F0080F07D0114A4D
:10124000936823F46043216943EAC103936000F08B
:1012500065F80C4B9B68C3F303130B4AD35CD8406F
:101260000A4B18600A4B1868FFF7C0F9002070BDE0
:10127000012070470120FAE70120F8E70120F6E796
:10128000003C0240003802405C2F000808000020AB
:1012900004000020014B1868704700BF08000020C0
:1012A00008B5FFF7F7FF044B9B68C3F38223034A9B
:1012B000D35CD84008BD00BF00380240542F00085E
:1012C00008B5FFF7E7FF044B9B68C3F34233034ABB
:1012D000D35CD84008BD00BF00380240542F00083E
:1012E0000F2303600B4B9A6802F0030242609A6876
:1012F00002F0F00282609A6802F4E052C2609B68D9
:10130000DB0803F4E0530361034B1B6803F00F0396
:101310000B60704700380240003C024008B5464B65
:101320009B6803F00C03082B05D00C2B43D0042B37
:101330007FD1424819E0404B5A6802F03F025B6897
:1013400013F4800F12D03C4B5968C1F388113B480D
:101350000023A1FB0001FEF7A3FF374B5B68C3F33B
:10136000014301335B00B0FBF3F008BD324B58681A
:10137000C0F388104FEA401CBCEB000C6EEB0E0E65
:101380004FEA8E1343EA9C634FEA8C11B1EB0C01D8
:1013900063EB0E03DB0043EA5173C90011EB000C51
:1013A00043F10003990200234FEA8C2041EA9C514B
:1013B000FEF776FFD1E7204B5A6802F03F025B68E8
:1013C00013F4800F10D01C4B5968C1F388111B48CF
:1013D0000023A1FB0001FEF763FF174B5B68C3F31B
:1013E0000273B0FBF3F0C0E7134B5868C0F38810EA
:1013F0004FEA401CBCEB000C6EEB0E0E4FEA8E1356
:1014000043EA9C634FEA8C11B1EB0C0163EB0E03D2
:10141000DB0043EA5173C90011EB000C43F10003F8
:10142000990200234FEA8C2041EA9C51FEF738FFD5
:10143000D3E7034899E700BF0038024040787D01B8
:101440000024F400002800F0038270B582B0044646
:10145000036813F0010F41D09A4B9B6803F00C0313
:10146000042B32D0974B9B6803F00C03082B27D03A
:10147000944B9B6803F00C030C2B59D06368B3F5B5
:10148000803F5BD0B3F5A02F5ED08E4B1A6822F45C
:1014900080321A601A6822F480221A606368002B76
:1014A0005CD000F0DFFB0546864B1B6813F4003F61
:1014B00014D100F0D7FB401B6428F5D90320CEE1FE
:1014C000804B5B6813F4800FD2D07E4B1B6813F403
:1014D000003F03D06368002B00F0BC81236813F049
:1014E000020F60D0774B9B6813F00C0F4AD0754BFE
:1014F0009B6803F00C03082B3FD0724B9B6803F0F2
:101500000C030C2B69D0E368002B75D06E4B0122C5
:101510001A6000F0A7FB05466A4B1B6813F0020F28
:1015200061D100F09FFB401B0228F5D9032096E112
:10153000644B5B6813F4800FA0D0C6E7614A136860
:1015400043F480331360A9E75E4B1A6842F48022AB
:101550001A601A6842F480321A609FE700F082FB3A
:101560000546584B1B6813F4003FB7D000F07AFBD8
:10157000401B6428F5D9032071E1524B5B6813F4DA
:10158000800FBAD14F4B1B6813F0020F03D0E368F2
:10159000012B40F061814B4A136823F0F803216965
:1015A00043EAC1031360236813F0080F49D063694D
:1015B000002B33D0444B0122C3F8802E00F052FBA5
:1015C0000546404B5B6F13F0020F3AD100F04AFB27
:1015D000401B0228F5D9032041E13A4B5B6813F424
:1015E000800F90D1CEE7374A136823F0F8032169C2
:1015F00043EAC1031360D6E7334B00221A6000F0C0
:1016000031FB05462F4B1B6813F0020FCBD000F0C7
:1016100029FB401B0228F5D9032020E12A4B002298
:10162000C3F8802E00F01EFB0546264B5B6F13F0BF
:10163000020F06D000F016FB401B0228F5D903204C
:101640000DE1236813F0040F78D01E4B1B6C13F0D0
:10165000805F34D1002301931A4B1A6C42F0805200
:101660001A641B6C03F080530193019B01231E46F7
:10167000164B1B6813F4807F2AD0A368012B3BD044
:10168000052B3FD00F4B1A6F22F001021A671A6F19
:1016900022F004021A67A368002B3DD000F0E2FAA2
:1016A0000546084B1B6F13F0020F46D100F0DAFA23
:1016B000401B41F288339842F3D90320CFE0002346
:1016C0001E46D5E700380240000047420070004047
:1016D0006B4A136843F48073136000F0C3FA054645
:1016E000674B1B6813F4807FC7D100F0BBFA401B27
:1016F0000228F5D90320B2E0624A136F43F00103D8
:101700001367C8E75F4B1A6F42F004021A671A6F3B
:1017100042F001021A67BEE700F0A4FA0546594BF1
:101720001B6F13F0020F08D000F09CFA401B41F22F
:1017300088339842F3D9032091E0EEB9A369002BD6
:1017400000F08C804F4A926802F00C02082A54D0B4
:10175000022B17D04C4B00221A6600F083FA044685
:10176000484B1B6813F0007F45D000F07BFA001B4C
:101770000228F5D9032072E0424A136C23F080530B
:101780001364DBE7404B00221A6600F06BFA054653
:101790003C4B1B6813F0007F06D000F063FA401B3F
:1017A0000228F5D903205AE0E369226A1343626AEA
:1017B00043EA8213A26A5208013A43EA0243E26A08
:1017C00043EA0263226B43EA02732E4A53602E4BB4
:1017D00001221A6600F046FA04462A4B1B6813F0F1
:1017E000007F06D100F03EFA001B0228F5D9032045
:1017F00035E0002033E0002031E0012B31D0214BD7
:101800005B6803F48001E26991422CD103F03F024E
:10181000216A8A4229D1616A47F6C0721A40B2EB46
:10182000811F24D103F44031A26A5208013AB1EB7E
:10183000024F1ED103F07062E16AB2EB016F1AD160
:1018400003F0E043226BB3EB027F16D1002006E0E9
:1018500001207047012002E0012000E0184602B09C
:1018600070BD0120FBE70120F9E70120F7E7012027
:10187000F5E70120F3E70120F1E70120EFE700BFE2
:1018800000700040003802400000474270B582B04E
:101890008E46002369E085684FEA430C032101FA74
:1018A0000CF125EA0105DEF80C1001FA0CF12943D0
:1018B0008160416821EA0201DEF80420C2F30012CF
:1018C0009A400A43426065E0D908083150F8212067
:1018D00003F00705AD004FF00F0C0CFA05FC22EAEF
:1018E0000C0CDEF81020AA4042EA0C0240F821203D
:1018F00067E0062200E0002202FA0CF22A430231DD
:101900005D4D45F821205D4A9168E24321EA0405D6
:10191000DEF8046016F4801F01D044EA010557493F
:101920008D60C96802EA0105DEF8046016F4001F44
:1019300001D044EA01055149CD60496802EA010538
:10194000DEF8046016F4003F01D044EA01054B497B
:101950004D6009680A40DEF8045015F4803F01D05C
:1019600044EA010245490A6001330F2B00F28180ED
:1019700001229A40DEF8001001EA020432EA010175
:10198000F2D1DEF8041001F0030C0CF1FF3CBCF1C5
:10199000010F80D9DEF8042002F00302032A0AD0E6
:1019A000C1685D000322AA4021EA0201DEF8082096
:1019B000AA400A43C260DEF8042002F00302022AB1
:1019C00082D001684FEA430C032202FA0CF221EAAA
:1019D0000201DEF8042002F0030202FA0CF20A43CC
:1019E0000260DEF8042012F4403FBDD000220192D4
:1019F000234A516C41F480415164526C02F480429C
:101A00000192019A99088D1C1B4A52F8255003F047
:101A1000030C4FEA8C0C0F2202FA0CF225EA0205A5
:101A2000184A90423FF467AF02F58062904216D0A8
:101A300002F58062904214D002F58062904212D08A
:101A400002F58062904210D002F5806290420ED082
:101A500002F5806290423FF44CAF07224CE701222E
:101A60004AE7022248E7032246E7042244E7052228
:101A700042E702B070BD00BF00380140003C0140A9
:101A8000003802400000024070B50446836D1E46D7
:101A900000F0E8F894F83530022B06D08023636517
:101AA000002384F83430012070BD05462268136895
:101AB00023F0160313602268536923F080035361F7
:101AC000236CE3B12268136823F0080313602268D3
:101AD000136823F00103136023681B6813F0010FE0
:101AE00011D000F0BFF8431B052BF5D92023636507
:101AF000032084F83500002384F83430D4E7A36C45
:101B0000002BDFD1E3E7E26D3F239340B360012375
:101B100084F83530002084F83400C5E790F835307B
:101B2000022B03D08023436501207047052380F8F2
:101B300035300268136823F00103136000207047FA
:101B4000002807DB00F01F02400901239340024AEE
:101B500042F82030704700BF00E100E0002808DBB9
:101B60000901C9B200F1604000F5614080F800133E
:101B7000704700F00F000901C9B2014B19547047BA
:101B800014ED00E000B500F00700A0F1030CBCF17B
:101B9000040F07D8C0F1070E0430062806D84FF00E
:101BA000000C03E04FF0040E4FF0000C4FF0FF3339
:101BB00003FA0EF021EA000101FA0CF103FA0CF32A
:101BC00022EA030241EA020000BD0000074AD3688E
:101BD00023F4E0631B041B0C000200F4E0600343E9
:101BE00043F0BF6343F40033D360704700ED00E07F
:101BF00010B50446054BD868C0F30220FFF7C2FFBA
:101C000001462046FFF7AAFF10BD00BF00ED00E02F
:101C100008B5FFF795FF08BD08B50B4B1A6842F4ED
:101C200000721A601A6842F480621A601A6842F4FC
:101C300080721A600320FFF7C9FF0F20FEF7D6FC61
:101C4000FEF7B8FC002008BD003C0240034A1168C2
:101C5000034B1B780B441360704700BF1802002031
:101C600000000020014B1868704700BF18020020D8
:101C7000034AD2F8883043F47003C2F888307047C2
:101C800000ED00E008B503460D4A0E490E48006815
:101C900040B10D4800680344521A934208D80A4ADA
:101CA000136008BD0848DFF824C0C0F800C0F0E7A2
:101CB00000F064FA0C2303604FF0FF30F1E700BF3F
:101CC00000000220000400001C0200203804002054
:101CD00030B300B58E4684460378DBB100229CF811
:101CE00000309BB1A3F13000C0B2092814D8303BBA
:101CF000D8430C49A1FB0010B2EBD00F0ED802EB79
:101D0000820203EB42020CF1010CE8E7CEF800205E
:101D1000012000E0184600BD0020FCE70020FAE7A3
:101D2000704700BFCDCCCCCC0FB410B582B004ABA3
:101D300053F8042B0193064C8021204600F008FA4A
:101D40002046FEF70DFB02B0BDE8104004B070471E
:101D500020020020002800F0B980F0B58BB00E46BC
:101D6000174605460C685A492046FEF731FA002806
:101D700032D058492046FEF72BFA30B9012D04DD48
:101D800055497068FEF724FA58B354492046FEF7C7
:101D90001FFA002843D052492046FEF719FA0028BE
:101DA00040F09080384600F04BF901464D48FFF76F
:101DB000BBFF384600F04BF901464B48FFF7B4FF34
:101DC0004A4B19684A48FFF7AFFFFEF7F5FA01469C
:101DD0004848FFF7A9FF02E04748FFF7A5FF0BB00F
:101DE000F0BD06A8FEF7E4FAA8B1069A002A0EDBB9
:101DF0001346002A0DDB4149414AA2FB0302520966
:101E0000642000FB12333F48FFF78EFFE7E75342A1
:101E1000EFE73D49F0E73D48FFF786FFDFE7FEF7D4
:101E2000CBFA074678B114230593012D0FDC059BEF
:101E3000BB4200D90597059C3C1B7A1E21463448BD
:101E4000FFF772FF27E03348FFF76EFFC7E705A9EA
:101E50007068FFF73DFF10B1059B002BE7D12E48BE
:101E6000FFF762FFBBE7484220E0DFF89CC09DF827
:101E7000241003912249A1FB00E149094FF0640EAF
:101E80000EFB110002900191CDF800C021462348BD
:101E9000FFF74AFF0134BC42A1D206A92046FEF753
:101EA0008DFA50B108990029DDDB0846069A079B98
:101EB0000029DADBDFF844C0D9E721461848FFF7EC
:101EC00033FFE7E71748FFF72FFF88E7704700BFAA
:101ED000EC2D0008202E0008282E0008642E000893
:101EE000EC2E0008F42E0008042F0008A0020020A9
:101EF000182F00082C2F0008F42D0008882E000849
:101F00001F85EB51302E0008E82D0008442E0008F4
:101F10008C2E00086C2E0008782E0008A82E0008D1
:101F2000D82E0008402F000800B587B003460A46A7
:101F300000201BE0013319782029FBD00929F9D0B2
:101F4000B9B1042805DC06A901EB800C4CF8143C5F
:101F50000130197829B1202903D0092901D0013392
:101F6000F7E719B14FF0000C03F801CB19780029FD
:101F7000E1D101A9FFF7EEFE07B000BD0023034A3F
:101F80001360034A1370034A13607047A8020020CD
:101F9000A4020020A002002010B582B0044607E091
:101FA0001F4B1B78FBB100231D4A13701D4A1360A1
:101FB0000DF10701204600F066F800282DD09DF8AD
:101FC00007300D2BECD00A2BEAD0154A1278002AE4
:101FD000EED1144A12683E2A14D8501C11490860E8
:101FE00011498B54E4E70F4B1B68002BE0D00E48DF
:101FF0004FF00002C2542146FFF796FF094B002222
:102000001A60D5E7064B01221A70084A136801339B
:102010001360044B00221A60CAE702B010BD00BF73
:10202000A4020020A8020020AC020020A002002090
:102030000023C0F80031C0F80431C0F808317047FF
:10204000D0F80031D0F80401181AC0B27047D0F8A7
:102050000801704738B504460D46FFF7F1FFFF2829
:102060000AD0D4F80031DBB2E554D4F800310133A2
:10207000C4F80031012038BDD4F808310133C4F868
:1020800008310020F7E738B504460D46FFF7D8FFC2
:1020900050B1D4F80431DBB2E35C2B70D4F80431D6
:1020A0000133C4F80431012038BD0000DFF834D01A
:1020B000FFF7DEFD0C480D490D4A002302E0D4581D
:1020C000C4500433C4188C42F9D30A4A0A4C002382
:1020D00001E013600432A242FBD300F055F8FEF792
:1020E000C3F9704700000220000000205C000020BF
:1020F000B02F00085C00002034040020FEE7000040
:1021000030B5141E9BB005461A4605DA8B230360D2
:102110004FF0FF301BB030BD4FF00003199318BFD4
:102120000123E31A02930593084B00910491039352
:1021300069461E9B00F0A4F9431CBCBF8B232B6097
:10214000002CE7D0009B00221A70E3E70802FFFF93
:1021500007B5009313460A46014603480068FFF797
:10216000CFFF03B000BD00BF0C00002002440346B7
:10217000934200D1704703F8011BF9E7014B18683F
:10218000704700BF0C00002070B50D4B0D4C0026B1
:102190001D1BB6EBA50F09D100F008FE0A4C0B4B36
:1021A00000261D1BB6EBA50F05D170BD54F8043BEE
:1021B00098470136EDE754F8043B98470136F1E7BC
:1021C000A82F0008A82F0008A82F0008AC2F00088F
:1021D0007047704737B5002944D051F8043C01904E
:1021E000002BA1F10404B8BFE41800F0DDF81E4A8A
:1021F0000198136833B96360146003B0BDE83040E0
:1022000000F0D8B8A34208D9256861198B4201BFF4
:1022100019685B6849192160EDE71A465B680BB1E4
:10222000A342FAD911685518A5420BD1246821445C
:102230005418A3421160E0D11C685B6853600C44E1
:102240001460DAE702D90C230360D6E72568611928
:102250008B4204BF19685B68636004BF4919216041
:102260005460CAE703B030BD3004002070B50F4C95
:102270000E462168054611B900F0B4FB20603146D6
:10228000284600F0AFFB431C03D14FF0FF3420463B
:1022900070BDC41C24F00304A042F8D0211A2846C3
:1022A00000F0A0FB0130F2D1EFE700BF2C040020CA
:1022B0002DE9F843CD1C25F0030508350C2D38BF5A
:1022C0000C25002D064601DBA94204D90C233360FE
:1022D0000020BDE8F883334F00F066F83B681C46E9
:1022E0003CBB29463046FFF7C1FF431C044656D18C
:1022F0003C68A046B8F1000F40D1002C49D02368BB
:102300004146304604EB030900F06CFB814540D1A7
:1023100021686D1A29463046FFF7A8FF013038D0F2
:1023200023682B4423603B685A685ABBC7F8008077
:102330000EE02268521B1ED40B2A16D96119A34243
:10234000256018BF5960636808BF396062514B60EF
:10235000304600F02FF804F10B00231D20F0070099
:10236000C21A1CBF1B1AA350B3E76268A3420CBF7A
:102370003A605A60ECE723466468B1E74446D8F80F
:102380000480B7E71A465B68A342FBD10023536081
:10239000DEE70C233360304600F00CF898E7056068
:1023A000D6E700BF300400200148FFF711BF00BF8F
:1023B000280400200148FFF70CBF00BF28040020BC
:1023C0002DE9F0478E681F46BE4282460C46904675
:1023D000334653D8B1F90C0010F4906F2BD06569D7
:1023E0002368096905EB4505A3EB010905EBD575E4
:1023F0007B1C6D104B44AB422A4684BF1D462A46C7
:10240000430527D511465046FFF752FF064658B3FD
:1024100021694A4600F0F6FAA38923F4906343F059
:102420008003A381266165614E44A5EB0905266002
:10243000A5603E463B461F4620683A46414600F0AE
:10244000B7FAA3689B1BA36023683B44236000206A
:10245000BDE8F087504600F0E3FA06460028E1D1D7
:1024600021695046FFF7B6FE0C23CAF80030A38955
:1024700043F04003A3814FF0FF30E9E73E46DBE73E
:102480002DE9F0471F468B891B069CB006460D467A
:10249000144610D50B6973B94021FFF709FF286076
:1024A000286130B90C2333604FF0FF301CB0BDE819
:1024B000F08740236B610023099320238DF8293096
:1024C00003973023654F8DF82A304FF001082346DB
:1024D0001A7899461AB1252A03F10103F8D1B9EB0C
:1024E000040A0BD05346224629463046FFF768FFC0
:1024F000013000F0A380099A5244099299F8003003
:10250000002B00F09B8000224FF0FF33CDE9053215
:1025100009F10109049207928DF853201A924C4652
:10252000052214F8011B4D48FDF76AFE049AD0B944
:10253000D00644BF20238DF85330110744BF2B230E
:102540008DF8533099F800302A2B13D007994B4659
:1025500000204FF00A0C1A78303A092A1C464AD952
:10256000A8B1079113E0C01B08FA00F010430490D3
:10257000A146D4E7039B191D1B680391002BBBBF29
:102580005B4242F0020207930793B8BF049223789C
:102590002E2B0AD163782A2B32D1039B1A1D1B687C
:1025A000039243EAE37302340593DFF8C090217885
:1025B00003224846FDF724FE38B1049BA0EB090036
:1025C00040228240134301340493217824488DF83B
:1025D00028100622FDF714FE002835D0214818BB2C
:1025E000039B073323F0070308330393099B03443A
:1025F000013409936BE701330CFB01210120AAE7A9
:1026000000230593611C18464FF00A0C0A78303AF3
:10261000092A0C4603D9002BC7D00590C5E7013124
:102620000CFB00200123F1E703AB00932A460E4B7D
:1026300004A93046AFF30080421CD7D1AB895B06BA
:102640003FF532AF099831E703AB00932A46064BBA
:1026500004A9304600F082F8EEE700BF6C2F0008B6
:10266000762F000800000000C1230008722F000828
:102670002DE9F047914698468A680B69089E934277
:10268000B8BF1346C9F8003091F8432007460C46FE
:1026900012B10133C9F800302368990642BFD9F856
:1026A00000300233C9F80030256815F0060507D15F
:1026B00004F1190AE368D9F800209B1AAB4229DC1F
:1026C00094F843302268003B18BF012392062ED4B1
:1026D00004F1430241463846B047013021D0236817
:1026E000A168226903F00603042B01BFE568D9F84D
:1026F0000030ED1A25EAE57518BF00258B1A2B442A
:102700009142C8BF1D464FF000091A344D451AD1F9
:10271000002008E00123524641463846B0470130C8
:1027200003D14FF0FF30BDE8F0870135C2E7E11873
:102730005A1C302081F84300224494F8451082F856
:1027400043100233C4E70123224641463846B047CE
:102750000130E6D009F10109D8E700002DE9F04386
:1027600098460B7E85B0782B174606460C9A0C4689
:1027700009D8622B01F1430108D8002B00F0DC805E
:10278000582B00F0BD8004F1420539E0A3F163004D
:102790001528F8D801A555F820F000BFF527000846
:1027A00009280008872700088727000887270008CE
:1027B00087270008092800088727000887270008BE
:1027C00087270008872700081929000835280008EE
:1027D000C728000887270008872700084129000824
:1027E0008727000835280008872700088727000862
:1027F000CF2800081368191D1B68116004F14205F9
:1028000084F842300123A8E013682568181D106081
:10281000280601D51B6803E06A06FBD5B3F9003032
:10282000002B03DA2D225B4284F84320DFF878C1C5
:102830000A2213E02568106815F0800F50F8043B59
:1028400002D16D0648BF9BB21060227EDFF858C1EE
:102850006F2A5DD10822002084F843006568A560D6
:10286000002D05DB20681D4320F00400206051D0BE
:102870000D46B3FBF2F002FB103E9A421CF80EE04C
:1028800005F801ED0346F4D9082A0BD12368DA07CD
:1028900008D5236962689A42DEBF302305F8013CFF
:1028A00005F1FF35491B2161CDF800803B4603AAA5
:1028B00021463046FFF7DCFE013053D14FF0FF30A8
:1028C00005B0BDE8F083236843F020032360DFF800
:1028D000DCC0782384F845302068156810F0800F3C
:1028E00055F8043B03D110F0400F18BF9BB21560A0
:1028F000C50744BF40F02000206023B11022AAE7A2
:10290000DFF8A4C0E6E7226822F020022260F5E7A3
:102910000A22A0E70D46B7E71368D4F800C0606943
:102920001D1D15601CF0800F1B6801D0186003E0AE
:102930001CF0400FFAD01880002323610D46B3E746
:102940001368191D11601D68626800212846FDF793
:1029500057FC08B1401B606063682361002384F862
:102960004330A1E723692A4639463046C047013043
:10297000A4D023689B0714D4E068039B9842B8BF97
:1029800018469DE7012304F1190239463046C04735
:10299000013093D00135E36803995B1AAB42F1DC57
:1029A000EAE70025F7E700BF7D2F00088E2F00081B
:1029B000884210B501EB020402D98442234607D8AD
:1029C000431EA14207D011F8012B03F8012FF8E7AD
:1029D0000244824200D110BD13F8011D02F8011D0E
:1029E000F7E7000038B5064C00230546084623608B
:1029F000FFF748F9431C02D1236803B12B6038BDAF
:102A0000240400200A44914200F1FF3300D17047B2
:102A100010B511F8014B03F8014F9142F9D110BDE7
:102A20002DE9F041074615460C4621B9BDE8F041B5
:102A30001146FFF73DBC2AB9FFF7CCFB2C462046D8
:102A4000BDE8F08100F01AF88542064602D8B5EBE1
:102A5000500FF4D829463846FFF72AFC804608B9BB
:102A60004446ECE7B5422A46214628BF3246FFF7E6
:102A7000C9FF21463846FFF7ADFBF1E751F8043CAA
:102A8000181F002BBCBF0B58C01870472DE9F0472A
:102A900082B00646DDF828E00846B4460D46002B15
:102AA0004ED18A4214466DD9B2FA82F242B1C2F1D5
:102AB0002003954026FA03F394401D4306FA02FCD6
:102AC000260CA7B2B5FBF6F14FEA1C4306FB1155E5
:102AD00043EA054301FB07F0984209D9E31801F1E5
:102AE000FF3580F00381984240F20081023923448F
:102AF0001B1A1FFA8CFCB3FBF6F006FB10334CEAF2
:102B0000034C00FB07F363450AD914EB0C0C00F1EE
:102B1000FF3580F0ED80634540F2EA80A44402383E
:102B200040EA0140ACEB030C0021BEF1000F04D0E1
:102B30002CFA02F30022CEE9003202B0BDE8F087A1
:102B40008B4209D9BEF1000F01D0CEE9006100210E
:102B5000084602B0BDE8F087B3FA83F117460029B2
:102B60004DD1834202D3B24200F20F81B6EB070C83
:102B700060EB030301201D46BEF1000FDDD0CEE95E
:102B800000C5DAE7002A00F098801A46B4FA84F308
:102B9000002B40F0AF800B1B270CA6B20121B3FB2A
:102BA000F7F54FEA1C4007FB153340EA034306FBE9
:102BB00005F8984507D9E31805F1FF3002D298458A
:102BC00000F2E8800546A3EB08031FFA8CFCB3FB78
:102BD000F7F007FB10334CEA034C06FB00F36345A8
:102BE00008D914EB0C0C00F1FF3602D2634500F259
:102BF000CE803046ACEB030C40EA054095E7C1F1CE
:102C000020058B4022FA05FC4CEA030C00FA01F483
:102C100026FA05F3E84002FA01F943EA04084FEA0C
:102C20001C4206FA01FAB0FBF2F71FFA8CF602FB1F
:102C300017004FEA184444EA004407FB06F0A0429C
:102C40000AD91CEB040407F1FF3380F09C80A042FA
:102C500040F29980023F6444241A1FFA88F3B4FBBF
:102C6000F2F002FB104443EA044300FB06F69E42E6
:102C700009D91CEB030300F1FF3480F082809E42EF
:102C80007FD90238634440EA0740A0FB09749B1BCC
:102C9000A3423E46A04664D361D0BEF1000F0AD0E5
:102CA000BAEB060263EB080303FA05F5CA401543C5
:102CB000CB40CEE9005300213FE7730843EAC173DC
:102CC0004A08190C41EA02414FEAC67C9BB2B2FBAA
:102CD000F4F02646A04627461F2243EA0143B1FBF3
:102CE000F4F1A3EB080341EA004158E72946FFE667
:102CF000284615E71A46C3F120019C4026FA01F345
:102D000020FA01F190400343270C06FA02FCB1FBC4
:102D1000F7F0A6B207FB1015190C41EA054100FBBC
:102D200006F58D423BD9611801D28D4220D8491B4E
:102D30000138B1FBF7F5019505FB06F8019D9BB243
:102D400007FB151143EA0143434526D2E31805F179
:102D5000FF31C6D24345C4D2A91E2344C1E7BA45B8
:102D60009BD2B7EB090664EB0C040138A04694E74C
:102D7000651B29440238B1FBF7F5019505FB06F800
:102D8000DCE720467FE71F4666E70846F4E6A444F2
:102D900002382FE7023D234415E70199A1E7491BBB
:102DA000B1FBF7F5019505FB06F8C7E7F8B500BFDD
:102DB000F8BC08BC9E467047F8B500BFF8BC08BC1C
:042DC0009E46704774
:102DC4003D3D3D2053544D33324634343652452034
:102DD40053797374656D20426F6F74203D3D3D0DD2
:102DE4000A0000002D00000068656C7000000000FF
:102DF400436F6D6D616E64733A2068656C702C204E
:102E0400726561642074656D702C2064756D70202A
:102E14005B6E5D2C20737461740D0A0072656164CD
:102E24000000000074656D700000000054656D7052
:102E34003A20257325752E253032750D0A000000C1
:102E44004572726F723A204932432053656E736F34
:102E5400722072656164206661696C65640D0A00A4
:102E640064756D70000000006E6F207265636F7290
:102E7400640D0A00496E76616C6964206E756D623A
:102E840065720D0A0000000044756D70696E67205C
:102E94006C6F677320257520746F2025752E2E2E78
:102EA4000D0A00005B25755D205365713A25752078
:102EB40054533A25752054656D703A257325752E43
:102EC4002530327520466C6167733A30782530328C
:102ED400580D0A005B25755D20526561642065729A
:102EE400726F720D0A0000007374617400000000B8
:102EF40072782E636F756E743A2025750D0A000082
:102F040072782E64726F707065643A2025750D0AAC
:102F140000000000636C692E6F766572666C6F77D3
:102F24003A2025750D0A00006C6F672E7265636F79
:102F34007264733A2025750D0A000000556E6B6E9D
:102F44006F776E20636F6D6D616E640D0A00000013
:102F54000000000001020304000000000000000063
:102F64000102030406070809232D302B2000686C96
:102F74004C00656667454647003031323334353698
:102F840037383941424344454600303132333435D1
:0C2F9400363738396162636465660000FE
:082FA00030D2FF7F01000000A8
:042FA8003D030008DD
:042FAC001503000801
:102FB00001000000100000000024F40010000020B8
:102FC00000000000EC02002054030020BC0300209D
:102FD00000000000000000000000000000000000F1
:102FE00000000000000000000000000000000000E1
:102FF00000000000000000000000000000000000D1
:0C300000000000000000000000000000C4
:04000005080020AD22
:00000001FF
